:020000040800F2
:10000000F810002045010008090300083903000822
:100010003D030008410300084503000800000000FC
:10002000000000000000000000000000490300087C
:100030004B03000800000000271300084D030008D0
:100040005F0100085F0100085F0100085F01000810
:100050005F0100085F0100085F0100085F030008FE
:1000600061030008630300085F0100085F010008E6
:100070005F0100085F0100085F0100085F010008E0
:100080005F0100085F0100085F0100085F010008D0
:100090005F0100085F0100085F0100085D030008C0
:1000A0005F0100085F0100085F0100085F010008B0
:1000B0005F0100085F0100085F0100085F010008A0
:1000C0005F0100085F0100085F0100085F01000890
:1000D0005F0100080B0300085F0100085F010008D2
:1000E0005F0100085F0100085F0100085F01000870
:1000F0005F0100085F0100085F0100085F01000860
:100100005F0100085F0100085F0100085F0100084F
:100110005F0100085F0100085F0100085F0100083F
:100120005F0100085F0100085F0100085F0100082F
:10013000DFF80CD003F026F900480047DD01000885
:10014000F81000200648804706480047FEE7FEE713
:10015000FEE7FEE7FEE7FEE7FEE7FEE7FEE7FEE777
:10016000271100083101000870B504460D46E1B2C0
:10017000254800F0A1FE00BF8021234800F00AFFBF
:100180000028F9D0204670BD70B50446002500BF98
:1001900001F062FB01F0A0F8054606231B4A00218E
:1001A0001B4802F0CFFC092002F04CFF284601F06A
:1001B00097F870BD10B500F0B6FF0121042000F0E3
:1001C0006DFC0121880300F069FC0121084600F064
:1001D00065FC0121082000F061FC10BD10B500F0A5
:1001E0001BF8FFF7E7FF00F0BFF800F010F901F08F
:1001F000F6F90923074A0021AFF2730002F0A2FCCE
:1002000001F012FB002010BD0038014070020020F8
:10021000870300087001002010B56FF0040000F0A3
:10022000F0FC344800683449B0FBF1F03349087001
:10023000304800683049B0FBF1F441F28830444363
:1002400005202F4908804FF0E020006940F00200AF
:100250004FF0E021086108464461006940F0010068
:10026000086110BD70B5034600224FF0E0267569A5
:10027000224E367803FB06F400BF4FF0E026B1694A
:1002800010E04FF0E026B06988420BD0884202D2DD
:100290000E1A324402E02E1A0E4432440146A242A3
:1002A00000D300E0EDE700BF70BD70B5044615480F
:1002B0000078012811D112480088844206DB1048DA
:1002C000008894FBF0F5284602F084FF0C48008873
:1002D00094FBF0F100FB114084B24FF47A7104FBFF
:1002E00001F0FFF7BFFF70BD00E0401E0028FCD109
:1002F000704700001800002000127A000100002062
:100300000200002052000020704710B540F2255135
:10031000144800F055FE70B1124800F0D1FD0446BB
:100320002146104800F0C8FD00BF80210D4800F0B4
:1003300031FE0028F9D010BD00BFFEE700BFFEE788
:1003400000BFFEE700BFFEE77047704710B501F041
:100350005CF901F0A0FA01F073F910BD7047704725
:10036000704770470038014008B52020ADF8000004
:1003700003208DF8020010208DF8030069460B4819
:1003800000F0D0F808BD00BF0FE02021074800F0C2
:1003900076F94FF47A70FFF788FF2021034800F0C8
:1003A00070F94FF47A70FFF780FFEEE7000C014020
:1003B00008B54FF40070ADF8000003208DF802007E
:1003C00018208DF803006946244800F0ABF84FF47C
:1003D0008060ADF8000004208DF8030069461F48D6
:1003E00000F0A0F808BD08B54FF4C06000F0BAFBFB
:1003F00025208DF8000000208DF8010001208DF8E7
:1004000002008DF80300684600F0B1FB08BD1FB57F
:10041000FFF7CEFF4FF4165000900020ADF8040017
:10042000ADF80600ADF80800ADF80C000C20ADF8F2
:100430000A0069460A4800F046FC012240F22551B4
:10044000074800F0D8FC0121054800F0C8FC402115
:10045000034800F0ACFDFFF7C6FF1FBD00080140D8
:100460000038014010B50446CC48844208D101212F
:10047000042000F02DFB0021042000F029FB46E0C1
:10048000C748844208D10121082000F021FB002147
:10049000082000F01DFB3AE0C248844208D1012147
:1004A000102000F015FB0021102000F011FB2EE0C1
:1004B000BD48844208D10121202000F009FB002121
:1004C000202000F005FB22E0B848844208D1012139
:1004D000402000F0FDFA0021402000F0F9FA16E07B
:1004E000B348844208D10121802000F0F1FA0021B4
:1004F000802000F0EDFA0AE0AE48844207D10121E5
:10050000801500F0E5FA0021A01500F0E1FA10BD19
:1005100010B50121084600F0DBFA0021012000F0AF
:10052000D7FA10BD2DE9F041024600250026002033
:1005300000230024002791F803C00CF00F0591F868
:1005400003C00CF0100CBCF1000F03D091F802C0F6
:100550004CEA050591F800C0BCF1000F31D01468D9
:1005600000202BE04FF0010C0CFA00F3B1F800C0B2
:100570000CEA03069E4220D183004FF00F0C0CFAC8
:1005800003F7BC4305FA03FC4CEA040491F803C0EA
:10059000BCF1280F06D14FF0010C0CFA00FCC2F898
:1005A00014C00AE091F803C0BCF1480F05D14FF028
:1005B000010C0CFA00FCC2F810C0401C0828D1D372
:1005C0001460B1F800C0BCF1FF0F34DD54680020A6
:1005D0002EE000F1080C4FF0010808FA0CF3B1F816
:1005E00000C00CEA03069E4221D183004FF00F0C9D
:1005F0000CFA03F7BC4305FA03FC4CEA040491F837
:1006000003C0BCF1280F05D100F1080C08FA0CF862
:10061000C2F8148091F803C0BCF1480F07D100F173
:10062000080C4FF0010808FA0CF8C2F81080401CC2
:100630000828CED35460BDE8F0814FF6FF710180E9
:10064000022181700421C170704702460020936826
:100650000B400BB1012000E0002070470146886884
:1006600080B2704702460020D3680B400BB10120D6
:1006700000E0002070470146C86880B27047016101
:100680007047416170470AB1016100E04161704704
:10069000C16070474FF480320A4382618161826198
:1006A00082698269704702460020434B18684FF602
:1006B0008073184040EA021008433F4B18607047AF
:1006C0003E49C8617047F0B50A4600230024002166
:1006D000002500F00046B6F1004F02D1364EF16918
:1006E00001E0354E7168C0F3034583B200F4401653
:1006F000B6F5401F08D121F070612F4E766826F0C4
:1007000070662D4F7E6012E000F48016B6F5801FF3
:1007100006D1032606FA05F4A14341F0706106E014
:10072000460D360103FA06F6B14341F0706122B17D
:10073000460D360103FA06F6314300F00046B6F1E5
:10074000004F02D11C4EF16101E01B4E7160F0BD03
:1007500030B500228B071C0F0F2303FA04F2164B4F
:1007600008338C1053F824309343134C08348D1005
:1007700044F8253023468C1053F824308C07240F7E
:1007800000FA04F423430C4C08348D1044F825304F
:1007900030BD0A49DC3108607047000000080140A4
:1007A000000C0140001001400014014000180140FD
:1007B000001C0140002001400000014000002042D8
:1007C000DF48006840F00100DD49086008464068E5
:1007D000DC490840DA49486008460068DA490840C0
:1007E000D74908600846006820F480200860084661
:1007F000406820F4FE0048604FF41F008860704796
:10080000CF49096821F48031CD4A11601146096849
:1008100021F480211160B0F5803F03D0B0F5802F26
:100820000ED106E0C649096841F48031C44A11601E
:1008300007E0C349096841F4A021C14A116000E002
:1008400000BF00BF704710B5014600220023002002
:100850004A11012A02D1BA4C236806E0022A02D1C9
:10086000B74C236A01E0B64C636A01F01F02012411
:1008700094401C400CB1012000E0002010BD38B5B0
:10088000002000900024002500BF3120FFF7DBFF8F
:1008900005460098401C00900098B0F5A06F01D06C
:1008A000002DF2D03120FFF7CEFF08B1012400E087
:1008B0000024204638BD01460020A14A106820F0DF
:1008C000F80040EAC10010607047A0490860704716
:1008D000024600209A4B586820F47C1042EA01033B
:1008E0001843974B5860704798490866704701460F
:1008F0000020934A506820F003000843506070477E
:100900008F48406800F00C007047014600208C4A78
:10091000506820F0F0000843506070470146002006
:10092000874A506820F4E0600843506070470146F1
:100930000020834A506820F4605040EAC1005060B3
:10094000704729B17E4A527A02437D4B5A7204E0C5
:100950007B4A527A82437A4B5A7270477B49D8312C
:100960000860704701460020754A506820F44040F6
:100970000843506070470021714A20321170704A5C
:1009800082F82010012802D004280AD104E00121B5
:100990006B4A2032117005E00521694A203211703E
:1009A00000E000BF00BF70476949086070476449B4
:1009B000096A0143624A1162704765494439086017
:1009C000704730B500210022002400235C4D6D6883
:1009D00005F00C0121B1042905D0082923D105E037
:1009E0005C4D056022E05B4D05601FE0544D6D6875
:1009F00005F47012524D6D6805F48034022505EB44
:100A000092421CB9544D554305600BE04C4D6D6846
:100A100005F400351DB1504D5543056002E04D4DC4
:100A20005543056002E04B4D056000BF00BF444DDB
:100A30006D6805F0F0010909484D6B5C0568DD4003
:100A400045603F4D6D6805F4E061090A434D6B5CFC
:100A50004568DD4085603A4D6D6805F46051C90A0E
:100A60003E4D6B5C4568DD40C560354D6D6805F4F5
:100A70004041890B3A4D6B5CC568B5FBF3F50561E8
:100A800030BD29B12E4A526902432D4B5A6104E010
:100A90002B4A526982432A4B5A61704729B1284A2E
:100AA00092690243264B9A6104E0254A9269824387
:100AB000234B9A61704729B1214AD2690243204BE6
:100AC000DA6104E01E4AD26982431D4BDA61704745
:100AD00029B11B4AD2680243194BDA6004E0184A74
:100AE000D2688243164BDA60704729B1144A126902
:100AF0000243134B1A6104E0114A12698243104BFE
:100B00001A61704712494039086070470F49C8643C
:100B100070470B49C87170470948406A40F08070BF
:100B200007494862704701460020054A92680A401A
:100B30000AB1012000E00020704701498872704727
:100B4000001002400000FFF8FFFFF6FE00004242E6
:100B50008004424200127A0000093D000400002097
:100B60001400002031490143314A1160704770B5CB
:100B7000002100230F22C47804B32D4C246804F410
:100B8000E064C4F5E064210AC1F10403CA4044787A
:100B900004FA03F18478144021430901254C0678B6
:100BA000A155047804F01F050124AC4005786D11AF
:100BB000AD0005F1E025C5F8004109E0047804F036
:100BC0001F050124AC401C4D0678761145F82640DF
:100BD00070BD1A4A0A400243154B1B1F1A6070472A
:100BE00039B1134A121D12680243114B1B1D1A60C2
:100BF00006E00F4A121D126882430D4B1B1D1A603E
:100C00007047042808D14FF0E021096941F0040140
:100C10004FF0E022116107E04FF0E021096921F077
:100C200004014FF0E0221161704700000000FA0556
:100C30000CED00E000E400E080E100E080FFFF1F39
:100C400010B50446FB48844209D101218803FFF70F
:100C50003FFF00214FF48040FFF73AFF32E0F648B3
:100C6000844209D101214804FFF73FFF00214FF4DE
:100C70000030FFF73AFF25E0F048844209D1012116
:100C80008804FFF732FF00214FF48020FFF72DFF8B
:100C900018E0EB48844209D10121C804FFF725FF81
:100CA00000214FF40020FFF720FF0BE0E5488442CD
:100CB00008D101210805FFF718FF00214FF480102B
:100CC000FFF713FF10BD2DE9F04786B005460E462D
:100CD0000024A24600BFA1460027B08900B100BF92
:100CE0002F462C8A4CF6FF700440F08804432C8277
:100CF000AC894EF6F3100440B088318908437189FD
:100D000008430443AC81AC8A4FF6FF400440B089ED
:100D10000443AC8201A8FFF754FEC648874202D1C3
:100D2000DDF810A001E0DDF80CA0A88900F4004077
:100D300040B10AEBCA0000EB0A1031684900B0FB71
:100D4000F1F807E00AEBCA0000EB0A1031688900ED
:100D5000B0FBF1F86420B8FBF0F004012009642135
:100D600001FB1089A88900F4004040B1322000EB5B
:100D7000C900B0FBF1F000F00700044308E03220A6
:100D800000EB09106421B0FBF1F000F00F00044308
:100D90002C8106B0BDE8F0874FF4165101600021A8
:100DA0008180C18001810C214181002181817047B6
:100DB00010B502460020108A4FF2FF0318400B883E
:100DC0004C8823438C882343CC88234318431082C8
:100DD00010BD0021018041808180C180704721B118
:100DE000828942F40052828104E082894DF6FF73C9
:100DF0001A4082817047F0B5034600240026002582
:100E0000002040F66A17B94200D100BF1846C1F36E
:100E1000421401F01F06012707FA06F5012C01D143
:100E20000C3004E0022C01D1103000E014301AB173
:100E300007682F43076002E00768AF430760F0BD13
:100E40001AB1838A0B43838202E0838A8B438382B5
:100E50007047028A4FF6F0731A400282028A0A43F0
:100E60000282704782894FF2FF731A408281828921
:100E70000A438281704721B1828942F00202828155
:100E800004E082894FF6FD731A4082817047028A1E
:100E90004FF6DF731A400282028A0A4302827047C9
:100EA00021B1028A42F48042028204E0028A4BF6B7
:100EB000FF731A4002827047C1F3080282807047B4
:100EC00001468888C0F308007047818941F001011C
:100ED00081817047028BD2B20283028B42EA0122E7
:100EE00002837047028B02F47F420283028B0A4323
:100EF0000283704721B1828A42F02002828204E09C
:100F0000828A4FF6DF731A408282704721B1828A4B
:100F100042F01002828204E0828A4FF6EF731A4098
:100F20008282704721B1828A42F00802828204E004
:100F3000828A4FF6F7731A408282704721B1828904
:100F400042F40042828103E08289C2F30E02828170
:100F5000704721B1828A42F40062828204E0828A70
:100F60004FF2FF731A4082827047828A4FF6FB73FA
:100F70001A408282828A0A438282704721B1828A21
:100F800042F00202828204E0828A4FF6FD731A4028
:100F90008282704702460020B1F5007F00D100BF79
:100FA00013880B400BB1012000E00020704701F4D2
:100FB0000072B2F5007F00D100BFCA4302807047C3
:100FC00070B50246002400230025002040F66A1672
:100FD000B14200D100BFC1F3421501F01F03012649
:100FE00006FA03F3012D02D19689334006E0022D63
:100FF00002D1168A334001E0968A33400C12012652
:1010000006FA04F41688344013B10CB1012000E054
:10101000002070BD10B50022002340F66A14A142E2
:1010200000D100BF0A1201249440A3B2DC43048023
:1010300010BD00000038014000440040004800405E
:10104000004C0040005000400CB500200190009082
:101050006C48006840F480306A49086000BF694805
:10106000006800F4003000900198401C0190009846
:1010700018B90198B0F5A06FF1D16248006800F48A
:10108000003010B10120009001E000200090009895
:10109000012843D15C48006840F010005A490860BC
:1010A0000846006820F0030008600846006840F029
:1010B000020008605348406852494860084640684A
:1010C00048600846406840F48060486008464068D0
:1010D00020F47C1048600846406840F4E8104860FE
:1010E0000846006840F08070086000BF454800680E
:1010F00000F000700028F9D04248406820F003005A
:10110000404948600846406840F00200486000BF1F
:101110003C48406800F00C000828F9D10CBD10B51F
:10112000FFF792FF10BD10B53648006840F001008F
:1011300034490860084640683449084031494860ED
:1011400008460068324908402E4908600846006891
:1011500020F4802008600846406820F4FE004860C3
:101160004FF41F008860FFF7DAFF4FF00060294955
:10117000086010BD10B5002100200022214B5B68E3
:1011800003F00C0121B1042906D0082928D107E079
:10119000214B224C236027E01F4B204C236023E08F
:1011A000184B5B6803F47010164B5B6803F48032D5
:1011B000022303EB904022B9194B4343174C2360A1
:1011C0000DE0104B5B6803F4003323B1144B434331
:1011D000124C236003E0104B4343104C236003E0A8
:1011E0000D4B0E4C236000BF00BF064B5B68C3F382
:1011F00003130C4CE15C094B1B68CB40074C23608C
:1012000010BD000000100240002002400000FFF866
:10121000FFFFF6FE08ED00E000127A001800002043
:1012200000093D001C000020704770477047704760
:101230007047704770B5044610464FF080750560E2
:10124000051F28462C606FF00106051F28462E60FA
:101250004FF01236051F28462E604FF00336051F4B
:1012600028462E604FF00236051F28462E60761065
:10127000051F28462E60051F284629604FF01136AD
:10128000051F28462E604FF01036051F28462E6099
:101290004FF00936051F28462E604FF00836051F0F
:1012A00028462E604FF00736051F28462E604FF067
:1012B0000636051F28462E604FF00536051F2846C6
:1012C0002E604FF00436051F28462E6070BD704713
:1012D0007047704770470000EFF3108072B6704798
:1012E00080F310887047204C204D25604FF000049B
:1012F00084F309881E4C4FF0010525701D4C4FF0FA
:101300008055256062B6FEE730B41A4C4FF0805528
:10131000256030BC704730B4164C4FF080552560C6
:1013200030BC704700BF72B6EFF3098028B1203897
:1013300080E8F00F10490968086000B50F48804741
:101340005DF804EB0E480F490A7802700A480E490E
:101350000A680260106890E8F00F203080F3098876
:101360004EF0040E62B6704720ED00E00000FFFF73
:101370005200002004ED00E058000020CF120008C9
:101380004700002048000020600000207CB50025B8
:1013900014E06946284601F013FE064666B9F74890
:1013A00050F8254044B1012C06D0D4E9020100EBED
:1013B000810060640198A064681CC5B23F2DE8D923
:1013C0007CBD002400BF02E0282001F003FFEC48B0
:1013D00000780028F8D0EB4800686421B0FBF1F0F9
:1013E000E84908600846006828B90020E649087006
:1013F000FF2001F027FE00BFFFF76EFF0446E34821
:101400000068E34908600020E04908602046FFF7D3
:1014100067FFDF480068DB490968B0FBF1F0C0F105
:101420006400D9490870FFF704FFFFF7AFFF1420ED
:1014300001F0D0FEE0E700B587B003200021802254
:10144000D44BCDE90132CDE903104FF6FE703E23B7
:10145000D14A0090AFF2950001F0CBFB06AACFA1D4
:101460003E2001F02FFD07B000BD002400BF00BFEB
:10147000FFF732FF0446C5480068401CC3490860B6
:101480002046FFF72DFFFFF7D3FEF1E700B587B049
:10149000032000218022C54BCDE90132CDE90310A4
:1014A0004FF6FF703F23C24A0090AFF2410001F0B7
:1014B000A0FB06AABFA13F2001F004FD07B000BDBC
:1014C00004E0002200F8012B4A1E91B20029F8D155
:1014D000704770B5C821BB48FFF7F2FF00230FE04B
:1014E000581C85B203EB8300B64901EB800405EB81
:1014F000850001EB8006002020706660581C83B2D6
:10150000092BEDD303EB8300AE4901EB80040020EF
:10151000207060600846AC49086070BD70B54FF43B
:101520007C71AA48FFF7CCFF4FF480719348FFF716
:10153000C7FF002413E0601CC5B2C4EBC40000EB7D
:101540004000A24901EB8003C5EBC50000EB400061
:1015500001EB80065E619EA0D864601CC4B20B2CB7
:10156000E9D3C4EBC40000EB4000984901EB8003D1
:101570000020586196A0D8640020964908609348DE
:101580009549086070BD0021944A1170002004E064
:101590000021934A1154411CC8B20828F8D30021F5
:1015A000904A1170904A1170904A1160904A1160EF
:1015B000704700208F4908608F4908708F49087074
:1015C0008F4908708F4908708F4908606F4908601B
:1015D0006F4908606B49086069490870704710B529
:1015E000FFF722FEFFF7E5FFFFF7CDFFFFF796FFBE
:1015F000FFF76FFF00F0EAFE01F0E1F9FFF746FFA9
:10160000FFF719FFFFF711FE10BD7E480078012893
:1016100008D179480078FF2804D277480078401C28
:1016200075490870704779496C4A1278885C6C4932
:10163000095C764A515C01EBC0016B4A117070473E
:1016400010B500246F480078012830D1FFF744FE20
:1016500004466948007820B167480078401E664912
:10166000087065480078F8B964480078E0B9FFF779
:10167000DAFF42485C49097850F821005B4908606C
:10168000594800785749097888420DD05748006872
:10169000806B401C5549096888635B480068401CA2
:1016A00059490860FFF737FE2046FFF719FE10BDC5
:1016B00010B5002453480078012811D1FFF70CFE23
:1016C00004464D48007840B94C480078FF2804D2C1
:1016D0004A480078401C494908702046FFF700FE40
:1016E00010BD10B50024FFF7F7FD0446424800780E
:1016F000F8B942480078E0B9FFF795FF1F483A492A
:10170000097850F821003949086037480078354990
:10171000097888420DD035480068806B401C3349F9
:101720000968886338480068401C37490860FFF73B
:10173000EBFD2046FFF7D4FD10BD10B50024314865
:10174000007801286FD1FFF7C7FD04462B480078C9
:1017500080B12A480078401E284908700846007861
:1017600048B92548007838B92046FFF7B9FDFFF79A
:10177000B8FF58E054E04FE04AE000008C0700203A
:10178000440000203C0000203800002054000020CD
:10179000400000208C0300208805002075432F4F57
:1017A000532D494920537461740000008C050020BA
:1017B0008807002075432F4F532D49492049646CF9
:1017C0006500000074020020300000208C0800201A
:1017D0003F000000640000205C0000204900002061
:1017E0004A00002047000020480000206000002040
:1017F0005800002070000020450000204600002016
:1018000053000020520000202C000020C6330008A6
:101810002046FFF765FD06E02046FFF761FD02E088
:101820002046FFF75DFD10BD10B5EB48007890B97C
:10183000FFF7F9FEE9480078E9490870E948E74907
:10184000097850F82100E849086008460068E7492F
:101850000860FFF748FD10BD10B50024022001F01C
:10186000B9FCFFF739FD04460020E1490860204635
:10187000FFF736FD142001F0ADFCFFF72DFD044607
:10188000DB480068DB4908600120DB49087020461E
:10189000FFF726FD10BD70B50026FFF71AFDFFF714
:1018A0001BFD0646D5480068401CD44908603046F8
:1018B000FFF716FDC8480078012853D1D0480078BA
:1018C00020B1012804D0022809D103E001250BE052
:1018D000002509E001250120C949087004E001251F
:1018E0000020C749087000BF00BF05B970BDC548DA
:1018F000046833E0FFF7F0FC0646E06A50B3E06AA4
:10190000401EE062E06A28BB94F8300000F0370027
:1019100040B114F8300F00F0C80020700120607052
:10192000303C02E0002084F8310094F8300000F0F0
:10193000080078B93434A078B34909780843B2492B
:1019400008702078B149085C6178084314F83419AC
:10195000AE4A505464693046FFF7C2FC94F8320036
:101960003F28C7D100BFC1E740F22310704770473E
:1019700010B590F8342001F10B039B5C90F83540D2
:10198000A34301F10B04A35423469B5C23B98B7A38
:1019900090F83640A3438B7210BD2DE9F04F0546F9
:1019A0000F4690469946A87A99490E5C05F10B00BE
:1019B000805D11F800B00BEBC60000F0FF0A89480B
:1019C00050F82A4000202034E0602760207C20EA84
:1019D0000800207484F81190207C203C00F008005E
:1019E00068B994F836008849097808438649087030
:1019F0008648805D94F83510084384498855294607
:101A00002046FFF7B5FF5046BDE8F08F10B5774A86
:101A10001268D061754A126892F8343000F10B02F6
:101A2000D25C724B1B6893F835301A436F4B1B68BE
:101A300093F8344000F10B031A55827A6B4B1B6804
:101A400093F836301A438272684A126892F834105A
:101A50006E4A525C654B1B6893F835309A436B4B6A
:101A60005A541A46525C42B9604A126892F83630AB
:101A7000654A12789A43644B1A7010BD01460022E1
:101A80008A72002005E0002301F10B021354421C6E
:101A9000D0B20828F7D3704705E011F8013B00F8F1
:101AA000013B531E9AB2002AF7D17047014600202D
:101AB00002E0491C421CD0B20A78002AF9D17047D2
:101AC0002DE9F84F05460F4690469946DDE90AABE9
:101AD00000200090FFF700FC00904E480468002CA6
:101AE00075D0183454F8040C4A4908600098FFF780
:101AF000F7FB44F8187CA5760020207660766061BC
:101B000044F814BC44F80CAC44F8108C0C9824F83D
:101B1000080C24F8069C0020E077E810207705F0F8
:101B20000700E076217F01208840A077E17E012038
:101B30008840607700206060E060A0602062A06262
:101B40006062E0622063AFF278306063183C002688
:101B500006E0002104F1500040F82610701CC6B2C7
:101B6000002EF6D02046FFF7B3FB2046FFF75EFBC2
:101B7000FFF7B2FB00901B4840F825402148006861
:101B800060610020A0611F48006810B11D48006816
:101B900084611C4804603434A0781B4909780843E8
:101BA0001949087020781949085C6178084314F8CD
:101BB0003419164A505418480078401C16490870C9
:101BC0000098FFF78DFB0020BDE8F88FFFE7009835
:101BD000FFF786FB4220F7E7520000204800002074
:101BE000470000208C0700206000002058000020E3
:101BF000540000203C000020440000207000002021
:101C00006800002064000020490000204A000020F5
:101C1000C63300085C000020530000202DE9F05F6F
:101C200004460F4691461E464FF0000B20780528CB
:101C300004D0012030700020BDE8F09F09F0800A38
:101C4000BAF1000F04D029F080094FF0010801E03B
:101C50004FF0000800203070FFF73EFB8346B9F1DB
:101C6000000F2CD0B9F1010F3BD0B9F1020F03D016
:101C7000B9F1030F46D111E0208900EA0705BD4202
:101C800006D1B8F1010F05D12089A843208101E0D8
:101C9000702030705846FFF723FB3AE0208900EAB5
:101CA000070535B1B8F1010F05D12089A84320817E
:101CB00001E0702030705846FFF712FB29E02089C0
:101CC00027EA0005BD4206D1B8F1010F05D12089F0
:101CD0002843208101E0702030705846FFF700FB58
:101CE00017E0208927EA000535B1B8F1010F05D1C9
:101CF00020892843208101E0702030705846FFF78A
:101D0000EFFA06E05846FFF7EBFA00256F20307037
:101D100000BF00BF28468FE72DE9F04106460D467B
:101D20000027FA48007820B1102028700020BDE874
:101D3000F081FFF7D1FA0746F548046884B10068DE
:101D40004068F3490860052020702681002060600B
:101D5000F0A0E0603846FFF7C3FA0020287004E0E6
:101D60003846FFF7BDFA722028702046DFE730B50D
:101D700001464A6808682AB9CC68606028B1002525
:101D8000456002E0106000B142608B6800255D6232
:101D900030BDF0B506460F46B468002028346060B8
:101DA0002780207A00F0DF00207200206072207A05
:101DB000283C88B93434A078D74909780843D649F3
:101DC00008702078D549085C6178084314F8341904
:101DD000D24A5054012500E000253046FFF7C7FFE6
:101DE0002846F0BD2DE9F0470446894615464FF0D8
:101DF000000AC648007820B10F2028702046BDE8B0
:101E0000F0872078052803D0012028702046F6E7C7
:101E1000FFF762FA8246606808B1012700E00027F8
:101E2000B9F1000F03D0B9F1010F3CD119E08FB91E
:101E3000B8A0E06000202070B54800686060002015
:101E40002081B34804605046FFF74AFA002028700A
:101E5000002605E05046FFF743FA49202870264641
:101E600028E0D4F8048005E000214046FFF791FF08
:101E7000D8F80080B8F1000FF6D1A6A0E0600020ED
:101E80002070A3480068606000202081A0480460A2
:101E90005046FFF725FA012F01D1FFF722FC002061
:101EA0002870002606E05046FFF71AFA072028702F
:101EB000264600BF00BF3046A1E72DE9F0410546A8
:101EC0000E46144600279148007820B1112020705A
:101ED0000020BDE8F081FFF7FFF9074628780528C4
:101EE00006D03846FFF7FCF9012020700020F0E70B
:101EF000E86830603068FFF7D9FD80463846FFF764
:101F0000EFF9002020704046E3E72DE9F041054657
:101F10000E46144600277D48007818B11220207024
:101F2000BDE8F081FFF7D8F907462878052805D0E5
:101F30003846FFF7D5F901202070F1E7EE6038460A
:101F4000FFF7CEF90020207000BFE9E7F0B5144696
:101F5000059E734F3F6897F8307047F02007DFF811
:101F6000C0C1DCF800C08CF830700027DFF8B0C1C9
:101F7000DCF800C08CF83170694F3F68FE62684F32
:101F80003F6879620C828B74654F3F688F60476849
:101F90000F6000274F60C860456805B16960416007
:101FA0005F4F3F6897F834205C4FBF5CDFF870C12B
:101FB000DCF800C09CF835C027EA0C07DFF85CC1EC
:101FC0000CF802706746BF5C5FB9554F3F6897F8E1
:101FD00036C0514F3F7827EA0C07DFF83CC18CF838
:101FE0000070F0BD2DE9F04F89B005460F469146CF
:101FF0009A46129E002002904448007828B10220A0
:102000003070002009B0BDE8F08F4648007818B164
:102010000D2030700020F5E72878052803D0012036
:1020200030700020EEE709F0800BBBF1000F04D008
:1020300009F07F094FF0010801E04FF00008FFF7B9
:102040004BF90290B9F1000F4AD0B9F1010F78D0E5
:10205000B9F1020F03D0B9F1030F71D120E0288943
:1020600000EA0704BC420FD1B8F1010F02D1288960
:10207000A04328812A48006804850298FFF730F9B8
:10208000002030702046BDE74B463A4604A928465A
:10209000CDF800A0FFF75AFF0298FFF721F978E08A
:1020A000288900EA07047CB1B8F1010F02D1288920
:1020B000A04328811A48006804850298FFF710F9A8
:1020C0000020307020469DE74B463A4604A928463A
:1020D000CDF800A0FFF73AFF0298FFF701F958E0AA
:1020E000288927EA0004BC421ED1B8F1010F02D1B1
:1020F0002889204328810A48006804850298FFF750
:10210000EFF80020307020467CE71AE04500002000
:10211000340000203F000000490000204A00002059
:1021200058000020460000204B463A4604A92846A5
:10213000CDF800A0FFF70AFF0298FFF7D1F828E0DA
:102140001FE0288927EA00047CB1B8F1010F02D111
:10215000288920432881B148006804850298FFF748
:10216000BFF80020307020464CE74B463A4604A9A1
:102170002846CDF800A0FFF7E9FE0298FFF7B0F877
:1021800007E00298FFF7ACF800246F20307020467B
:1021900038E700BFFFF7A5FAFFF79EF802909F48C7
:1021A000006890F8310020B39C48006890F8310036
:1021B000039000209949096881F8310004A8FFF7CD
:1021C000D6FD00209549096881F830000298FFF794
:1021D00087F800240398012805D0022802D10E2098
:1021E000307003E000BF0A20307000BF00BF2046FF
:1021F00008E78A480068048DB8F1010F1ED1B9F1D3
:10220000000F0ED0B9F1010F0CD0B9F1020F03D0BD
:10221000B9F1030F0AD100E000BF2889A04328814B
:102220000BE000BF28892043288106E00298FFF7D1
:1022300057F86F2030700020E4E600BF0298FFF7E7
:102240004FF8002030702046DCE670B50025FFF71F
:1022500043F8054671480068048D2846FFF740F8AA
:10226000204670BD2DE9FC5F0446894692461E4615
:10227000002000902078052804D001203070002034
:10228000BDE8FC9FFFF728F80090BAF1000F03D0DB
:10229000BAF1010F0AD104E0208920EA0900208167
:1022A0000BE0208940EA0900208106E00098FFF752
:1022B00017F8712030700020E2E700BF4FF0000BEC
:1022C000656855E0A87C40B3012838D0022802D0C8
:1022D000032844D111E02089298A00EA0107288ACD
:1022E000B84209D139462846FFF753FD8046B8F178
:1022F000010F01D14FF0010B38E02089298A00EA53
:1023000001074FB139462846FFF743FD8046B8F133
:10231000010F01D14FF0010B28E0288A218920EA22
:102320000107288AB84209D139462846FFF731FD0E
:102330008046B8F1010F01D14FF0010B16E0288A59
:10234000218920EA01074FB139462846FFF721FDD0
:102350008046B8F1010F01D14FF0010B06E0009863
:10236000FEF7BEFF6F203070002089E700BF2D68A8
:10237000002DA7D10098FEF7B3FFBBF1010F01D1EB
:10238000FFF7AFF9FEF7A8FF0090208901900098B1
:10239000FEF7A6FF00203070019871E72DE9F041AB
:1023A00004460D4600272078052804D00120287017
:1023B0000020BDE8F081FEF78FFF074626893846EA
:1023C000FEF78EFF002028703046F2E72DE9F0413D
:1023D00050211348FFF774F800250EE0681C86B200
:1023E0000F4800EB051400EB061700202070676013
:1023F000AFF2E020E060681C85B2042DEED30848FF
:1024000000EB0514002020706060AFF2F820E0605F
:10241000034804490860BDE8F0810000580000202E
:102420003C030020340000202DE9F04106460D4613
:102430004FF000083078022804D0012028700020D6
:10244000BDE8F081FEF748FF80467468E08A78B105
:102450002169081D20610F68E08A401EE082A168A2
:102460002069884201D1606820610020287002E064
:102470001F20287000274046FEF732FF3846DFE76E
:102480002DE9F04106460F464FF00008F748007866
:1024900010B10020BDE8F081FEF71EFF8046F44831
:1024A0000568006820B1F24800684068F04908609B
:1024B0004046FEF715FF3DB3FEF70EFF8046ED48A0
:1024C0000468C4B100680068EA4908604046FEF745
:1024D00007FF666006EB8700A060E6602661A782C2
:1024E0000020E08202202870002028816C602846AD
:1024F000FFF7C4FA08E0DE4800686860DC48056061
:102500004046FEF7EDFE00252846C3E72DE9F047DB
:102510000446894615464FF0000A2078022804D068
:10252000012028702046BDE8F087D048007818B117
:102530000F2028702046F6E7FEF7CEFE8246A07AEE
:1025400010B14FF0010801E04FF00008B9F1000FA1
:1025500003D0B9F1010F45D11FE0B8F1000F15D13B
:102560006668C44800683060C24806600020207079
:10257000BF480068606000202081BD48046050466C
:10258000FEF7AEFE00202870002705E05046FEF75B
:10259000A7FE4920287027462BE005E000230422EF
:1025A00019462046FFF7F9F9A07A0028F6D16668A7
:1025B000B04800683060AF48066000202070AC482A
:1025C0000068606000202081A94804605046FEF742
:1025D00087FEB8F1010F01D1FFF783F800202870C2
:1025E000002706E05046FEF77BFE072028702746AE
:1025F00000BF00BF384696E770B505460026FEF7D7
:102600006BFE06466C686068E060606820610020D0
:10261000E0823046FEF764FE002070BD2DE9F047F1
:102620000746884615464FF000093878022804D03E
:10263000012028700020BDE8F0878C48007818B190
:10264000022028700020F6E78B48007818B10D2092
:1026500028700020EFE7FEF73FFE81467C68E08AA5
:1026600098B12169081D20610E68E08A401EE08251
:10267000A1682069884201D1606820614846FEF760
:102680002FFE002028703046D5E77C48006890F87F
:10269000300040F004007949096881F830000020DA
:1026A0007649096881F8310074480068C0F82C80C8
:1026B0003846FFF7ABF94846FEF712FEFFF711F870
:1026C000FEF70AFE81466D48006890F8310020B19F
:1026D00001280DD002280AD105E068480068066A82
:1026E000002028700DE000260E20287009E000BFB1
:1026F000394662480068FFF73BF900260A20287037
:1027000000BF00BF00205D49096881F830005B49C7
:10271000096881F8310059490968C8615749096851
:1027200008624846FEF7DCFD304684E72DE9F041BB
:1027300004460F4615464FF000082078022804D0C2
:10274000012028700020BDE8F081FEF7C5FD80461D
:10275000A07A20B300267FB1012F0CD107E002231D
:10276000042200212046FFF718F9701CC6B2A07A97
:102770000028F4D109E000BF0223042200212046F2
:10278000FFF70BF9701CC6B200BF00BF4046FEF752
:10279000A7FDFEF7A6FF0E2028703046D3E740467F
:1027A000FEF79EFD0020287000BFCCE72DE9F04128
:1027B00005460E4600272878022802D00120BDE8F1
:1027C000F081FEF789FD0746A87A60B10023042254
:1027D00031462846FFF7E1F83846FEF781FDFEF75F
:1027E00080FF0020EBE76C68E08AA18A884204DB66
:1027F0003846FEF775FD1E20E1E7E168081DE06040
:102800000E60E08A401CE082D4E90210884201D1C7
:102810006068E0603846FEF763FD0020CFE72DE9F1
:10282000F04105460E4600272878022802D00120F4
:10283000BDE8F081FEF750FD0746A87A60B100239D
:10284000042231462846FFF7A8F83846FEF748FD2F
:10285000FEF747FF0020EBE76C68E08AA18A884218
:102860000EDB3846FEF73CFD1E20E1E74500002068
:10287000300000206C00002046000020580000209E
:1028800061682069884201D1A06820612069001F29
:10289000206120690660E08A401CE0823846FEF72D
:1028A0001FFD0020C4E72DE9F04105460F461646FE
:1028B0004FF000082878022802D00120BDE8F081FE
:1028C000FEF70AFD8046A87AE8B106F0010050B193
:1028D00005E00023042239462846FFF75EF8A87A6F
:1028E0000028F6D105E00023042239462846FFF7E8
:1028F00054F84046FEF7F4FC06F0040008B9FEF771
:10290000F0FE0020DAE76C68E08AA18A884204DBE6
:102910004046FEF7E5FC1E20D0E706F0020058B165
:1029200061682069884201D1A06820612069001F88
:1029300020612069076009E0E168081DE0600F6020
:10294000D4E90210884201D16068E060E08A401C4E
:10295000E0824046FEF7C4FC0020AFE72DE9F047D7
:1029600005460C464FF0000A2878022802D00120C4
:10297000BDE8F087FEF7B0FC8246A87A207405F126
:102980000B0804F10809002705E018F8010B09F805
:10299000010B781CC7B2082FF7D36E68F08A18B104
:1029A00030690068206001E000202060F08AA0808B
:1029B000B08AE0805046FEF793FC0020D8E72DE96E
:1029C000F04178211048FEF77BFD00240DE0601CEB
:1029D00086B204EB44000C4901EBC00506EB46004F
:1029E00001EBC0072F60601C84B2042CEFD304EB12
:1029F0004400054901EBC005002028600846034952
:102A00000860BDE8F08100007C0C00206C00002014
:102A10002DE9FF5F8146884600200090FEF75CFCB0
:102A20000090F94850F8280030B10098FEF758FCA3
:102A3000282004B0BDE8F09FB9F1FF0F03D1F3489F
:102A4000006890F83290F04850F8294024B9009876
:102A5000FEF746FC2920ECE7012C04D10098FEF794
:102A60003FFC4320E5E74FEAE80708F00700039042
:102A70000120B84000F0FF0A01210398814001F0D5
:102A8000FF0B0020E04941F82900084640F82840A3
:102A900014F8346FA07802906078343C0190DC48E0
:102AA000815D01980140D1B1D948805D0199884389
:102AB000D74988550846805D28B9D64800780299DC
:102AC0008843D4490870D348007840EA0A00D149C5
:102AD0000870CF48C05D40EA0B00CD49C855E56994
:102AE000D5B105F10B00805D0199884305F10B011B
:102AF00088550846805D18B9A87A02998843A8725B
:102B0000A87A40EA0A00A87205F10B00C05D40EA0D
:102B10000B0005F10B01C85584F8328084F834703D
:102B2000039884F8330084F836A084F835B0009810
:102B3000FEF7D6FBB8480078012801D1FEF7D1FD99
:102B4000002076E72DE9FE4F06460F4690461C46CC
:102B50004FF00009FEF7C0FB8146B048007828B16D
:102B60004846FEF7BDFB3C20BDE8FE8FA64850F866
:102B7000240060BB0120A44941F824004846FEF728
:102B8000AFFB0023424639463046FEF753FB8246F0
:102B900000200090019003460246514602902046D4
:102BA000FEF78EFF054635B99B48007801280CD109
:102BB000FEF797FD09E0FEF78FFB81460020924962
:102BC00041F824004846FEF78BFB2846CCE74846F0
:102BD000FEF786FB2820C7E702F0010343B102F0AD
:102BE00002032BB102E0491E002308C00029FAD1DC
:102BF00070472DE9F04F85B081468A4693461C46C2
:102C0000DDE90F78129D00200390FEF765FB03902D
:102C10008248007830B10398FEF762FB3C2005B093
:102C2000BDE8F08F784850F8240088BB0120764931
:102C300041F824000398FEF753FB2A4641463846E4
:102C4000FFF7CAFF2B465A4651464846FEF7F2FAAE
:102C500004901198CDE9008002953A4620460E9BDB
:102C60000499FEF72DFF064636B96B480078012817
:102C70000CD1FEF736FD09E0FEF72EFB0390002095
:102C8000614941F824000398FEF72AFB3046C6E765
:102C9000FFE70398FEF724FB2820C0E72DE9F04169
:102CA000054600275D48007810B14020BDE8F0815E
:102CB0003F2D01D13E20F9E7FEF70EFB0746FF2D21
:102CC00003D15248006890F832504F4850F82540E0
:102CD00024B93846FEF704FB4320E7E7012C04D172
:102CE0003846FEF7FDFA3D20E0E714F8340F484976
:102CF000085C617888432178454A505414F83409B7
:102D00001146085C30B994F8361042480078884380
:102D100040490870E06918B12046E169FEF728FED5
:102D2000666A16B13046FFF722F80020E06284F8A8
:102D3000300084F831003A480078FF2804D238483F
:102D40000078401C364908703846FEF7C9FAFEF78D
:102D50000EFEFEF7C1FA07463148007820B1304830
:102D60000078401E2E4908702046FEF760FA2D4874
:102D70000078401E2B4908700020234941F82500A7
:102D8000A06930B9002061698861274960690860DD
:102D900005E0D4E905014861D4E9051088612348BC
:102DA000006860612148046021A0E0643846FEF7B5
:102DB00097FA19480078012801D1FEF792FC00200B
:102DC00074E72DE9F041044600273F2C02D13E2054
:102DD000BDE8F081FF2C0BD1FEF77EFA07460B48C9
:102DE000006890F837603846FEF77AFA3046EFE729
:102DF000FEF772FA0746044850F82450D5B9384611
:102E0000FEF76EFA4320E3E78C070020580000200D
:102E10004A00002049000020520000204500002008
:102E20004600002053000020640000205C000020C9
:102E30003F000000012D04D13846FEF751FA3D2035
:102E4000C6E73F2085F837003846FEF749FA0020EC
:102E5000BEE72DE9F04706460F4614464FF000083E
:102E6000D648007820B1112020700020BDE8F087FE
:102E7000FEF732FA8046FF2E03D1D148006890F861
:102E80003260D04850F8265035B94046FEF728FA4F
:102E9000432020700020E9E7012D06D14046FEF7CF
:102EA0001FFA432020700020E0E7E86C38603868A3
:102EB000FEF7FCFD81464046FEF712FA0020207026
:102EC0004846D3E72DE9F04106460F4614464FF039
:102ED0000008BA48007818B112202070BDE8F081CF
:102EE000FEF7FAF98046FF2E03D1B548006890F846
:102EF0003260B44850F826502DB94046FEF7F0F93C
:102F000043202070EAE7012D05D14046FEF7E8F99D
:102F100043202070E2E7EF644046FEF7E1F900202D
:102F2000207000BFDAE770B505460026FEF7D4F939
:102F30000646A44850F8254024B93046FEF7D0F99B
:102F4000462070BD012C04D13046FEF7C9F943205C
:102F5000F7E794F8300000F0080060B314F8300F81
:102F600000F0F700207014F83009F8B9E06AC8B929
:102F70003434A0789449097808439349087020783C
:102F80009249085C6178084314F834198F4A505408
:102F90003046FEF7A5F98E480078012809D1FEF7E2
:102FA000A0FB06E03046FEF79BF902E03046FEF754
:102FB00097F90020C5E73046FEF792F94420C0E7B4
:102FC0002DE9F04707460D464FF0000A0020286023
:102FD0006860FEF781F98246FF2F03D178480068C8
:102FE00090F83270774850F827402CB95046FEF7D9
:102FF00077F94320BDE8F087012C04D15046FEF755
:103000006FF94320F6E7207C00F0010020B950461C
:10301000FEF766F94520EDE70026D4F80C90D4F8C9
:1030200008805046FEF75CF900E0761C58F8041B57
:103030000029FAD0B0002860A9EB06008000686083
:103040000020D7E72DE9F04105464FF00008FEF7D4
:1030500043F98046FF2D05D15948006890F8325059
:10306000012608E05648006890F83200A84201D1D5
:10307000012600E00026534850F825402CB9404670
:10308000FEF72EF94820BDE8F081012C04D140461E
:10309000FEF726F94320F6E794F834704B48C05DFC
:1030A00094F8351088434949C8550846C05D30B981
:1030B00094F836104448007888434349087094F8DF
:1030C000300040F0080084F830004046FEF708F970
:1030D000012E01D1FEF705FB0020D4E72DE9F041D8
:1030E00005460E460027FEF7F7F80746FF2D03D1E9
:1030F0003348006890F83250324850F825402CB9D7
:103100003846FEF7EDF82920BDE8F081012C04D106
:103110003846FEF7E5F84320F6E7542221463046CC
:10312000FEF7BAFC3846FEF7DBF80020ECE72DE9A5
:10313000F04704460E4617464FF00009FEF7CCF85C
:103140008146FF2C02D11E48056802E01D4850F858
:10315000245005F1500050F826804846FEF7C0F88C
:10316000002038704046BDE8F0872DE9F04704465E
:103170000E46174698464FF00009FEF7ADF8814617
:10318000FF2C02D10E48056802E00E4850F824508A
:1031900005F1500040F826704846FEF7A1F80020DF
:1031A00088F80000BDE8F08710B505480068FEF714
:1031B00091F8FF20FFF772FD10BD000045000020D0
:1031C000580000208C070020490000204A00002001
:1031D0005200002070B5054600266348007800B113
:1031E00070BD6248007800B1FAE71DB3FEF774F8CD
:1031F00006465F48006890F834405E48005D5C49D0
:10320000096891F8351088435A4908550846005D09
:1032100040B95748006890F83610574800788843FE
:103220005549087052480068C5623046FEF758F8A4
:10323000FEF757FA00BFD3E72DE9F04104460D46EB
:1032400016461F464848007810B15520BDE8F08169
:103250004648007808B13220F8E7B81CC821484336
:103260004FF47A71B0FBF1F14FF461606043C5EB4C
:10327000051200EB8200304400EBC00202EB0010AC
:1032800001EBC0084046FFF7A5FF0020DEE770B560
:10329000054600263F2D01D32A2070BDFEF71CF8FD
:1032A0000646364850F8254024B93046FEF718F84F
:1032B0004320F2E7012C04D13046FEF711F84320F9
:1032C000EBE7E06A20B93046FEF70AF85020E4E761
:1032D0000020E06294F8300000F0370040B114F8AC
:1032E000300F20F03700207001206070303C02E089
:1032F000002084F8310094F8300000F00800A8B9EC
:103300003434A0781C49097808431B490870207898
:103310001849085C6178084314F83419154A505468
:103320003046FDF7DDFFFEF7DCF902E03046FDF741
:10333000D7FF0020B1E770B50025FDF7CDFF0546AA
:103340000F4804682846FDF7CBFF204670BD70B5D6
:1033500004460025FDF7C0FF0546094804602846DD
:10336000FDF7BEFF70BD00004500002046000020B4
:10337000580000204A000020490000208C0700204F
:1033800070000020064C074D06E0E06840F00103A5
:1033900094E8070098471034AC42F6D3FCF7CCFE13
:1033A000C8340008E834000802E008C8121F08C149
:1033B000002AFAD170477047002001E001C1121FB6
:1033C000002AFBD170470000010002000100030049
:1033D00001000200010004000100020001000300DE
:1033E00001000200010005000100020001000300CD
:1033F00001000200010004000100020001000300BE
:1034000001000200010006000100020001000300AB
:10341000010002000100040001000200010003009D
:10342000010002000100050001000200010003008C
:10343000010002000100040001000200010003007D
:10344000010002000100070001000200010003006A
:10345000010002000100040001000200010003005D
:10346000010002000100050001000200010003004C
:10347000010002000100040001000200010003003D
:10348000010002000100060001000200010003002B
:10349000010002000100040001000200010003001D
:1034A000010002000100050001000200010003000C
:1034B00001000200010004000100020001000300FD
:1034C0000100020001000000E834000800000020B4
:1034D00074000000A83300085C3500087400002068
:1034E00084100000B8330008000000000000000055
:1034F0000102030401020304060708090204060886
:1035000000A24A04000000000000000001020304C1
:10351000060708090000000000000000000000008D
:10352000000000000000000000000000000000009B
:10353000000000000000000000000000000000008B
:10354000000000000000000000000000000000007B
:0C3550000000000000000000000000006F
:0400000508000131BD
:00000001FF
