:020000040800F2
:1000000040110020CD010008150300081B03000863
:100010001F03000823030008270300080000000056
:100020000000000000000000000000002B0300089A
:100030002D03000800000000EF0600082F03000851
:10004000E7010008E7010008E7010008E7010008F0
:10005000E7010008E7010008E70100084103000884
:100060004303000845030008E7010008E701000812
:10007000E7010008E7010008E7010008E7010008C0
:10008000E7010008E7010008E7010008E7010008B0
:10009000E7010008E7010008E70100083F03000846
:1000A000E7010008E7010008E7010008E701000890
:1000B000E7010008E7010008E7010008E701000880
:1000C000E7010008E7010008E7010008E701000870
:1000D000E701000817030008E7010008E70100082E
:1000E000E7010008E7010008E7010008E701000850
:1000F000E7010008E7010008E7010008E701000840
:10010000E7010008E7010008E7010008E70100082F
:10011000E7010008E7010008E7010008E70100081F
:10012000E7010008E7010008E7010008E70100080F
:1001300000F002F800F03CF80AA090E8000C8244BD
:100140008344AAF10107DA4501D100F031F8AFF29A
:10015000090EBAE80F0013F0010F18BFFB1A43F0A5
:100160000103184780280000A0280000103A24BF8F
:1001700078C878C1FAD8520724BF30C830C144BF0C
:1001800004680C607047000000230024002500264E
:10019000103A28BF78C1FBD8520728BF30C148BFEA
:1001A0000B6070471FB5AFF300801FBD10B510BDC9
:1001B00002F05DFB1146FFF7F5FF00F02BF802F0AF
:1001C0007BFBFFF7F3FF02F081FB0000094880474B
:1001D00009480047FEE7FEE7FEE7FEE7FEE7FEE729
:1001E000FEE7FEE7FEE7FEE704480549054A064B41
:1001F00070470000F104000831010008400B0020A6
:1002000040110020400D0020400D002010B500F0EE
:100210006FF910BD10B500F005F8FFF7F7FF00BF4C
:10022000FEE7000010B56FF0040000F0DFF835487D
:1002300000683549B0FBF1F0344908703148006876
:100240003149B0FBF1F441F28830444305202F4995
:10025000491C08804FF0E020006940F002004FF098
:10026000E021086108464461006940F0010008612E
:1002700010BD70B500244FF0E0267569234E367826
:1002800000FB06F100BF4FF0E026B36910E04FF02D
:10029000E026B2699A420BD09A4202D29E1A3444A6
:1002A00002E0AE1A1E44344413468C4200D300E0F0
:1002B000EDE700BF70BD70B5044615480078012811
:1002C00014D11248401C0088844207DB0F48401CB0
:1002D000008894FBF0F5284602F0ECF90B48401C2E
:1002E000008894FBF0F100FB114084B24FF47A7166
:1002F00004FB01F0FFF7BDFF70BD00E0401E0028C9
:10030000FCD170470400002000127A000100002098
:100310003E000020704700BFFEE700BFFEE700BFC1
:10032000FEE700BFFEE700BFFEE77047704710B56D
:1003300000F055FB00F095FC00F06CFB10BD704721
:10034000704770477047000032490143324A1160DC
:10035000704770B5002100230F22C4780CB32E4CD7
:10036000246804F4E064C4F5E064210AC1F10403E4
:10037000CA40447804FA03F1847814402143090107
:10038000264C0678A155047804F01F050124AC40E2
:1003900005786D114FF0E02606EB8505C5F80041A4
:1003A00009E0047804F01F040125A5401C4C0678E0
:1003B000761144F8265070BD1A4A0A400243164B83
:1003C0001B1F1A60704741B1134A121D1268024385
:1003D0004FF0E023C3F8102D07E00F4A121D1268FA
:1003E00082434FF0E023C3F8102D7047042808D152
:1003F0004FF0E021096941F004014FF0E022116162
:1004000007E04FF0E021096921F004014FF0E022FC
:10041000116170470000FA050CED00E000E400E017
:1004200080E100E080FFFF1F00200021674A126882
:1004300042F48032654B1A6000BF644A126802F4CD
:100440000031401C11B9B0F5A06FF6D15F4A1268B7
:1004500012F4003F01D0012100E00021012942D126
:100460005B4A126842F01002594B1A601A46126831
:1004700022F003021A601A46126842F002021A6061
:10048000524A5268514B5A601A4652685A601A468C
:10049000526842F480625A601A46526822F47C1212
:1004A0005A601A46526842F4E8125A601A461268B4
:1004B00042F080721A6000BF444A126812F0007F56
:1004C000FAD0424A526822F00302404B5A601A4660
:1004D000526842F002025A6000BF3C4A526802F081
:1004E0000C02082AF9D1704710B5FFF79DFF10BD27
:1004F00010B53648006840F00100344908600846ED
:10050000406834490840314948600846006832492B
:1005100008402E4908600846006820F480200860E2
:100520000846406820F4FE0048604FF41F008860D1
:10053000FFF7DAFF4FF000602849086010BD10B5E2
:10054000002000210022214B5B6803F00C0020B149
:10055000042806D0082828D107E0214B214C23602D
:1005600027E01F4B1F4C236023E0184B5B6803F40C
:100570007011164B5B6803F48032022303EB914148
:1005800022B9194B4B43174C23600DE00F4B5B68AE
:1005900013F4003F04D0144B4B43124C236003E090
:1005A0000F4B4B430F4C236003E00D4B0D4C23606E
:1005B00000BF00BF054B5B68C3F303130B4CE05C4B
:1005C000084B1B68C340074C236010BD001002405D
:1005D000002002400000FFF8FFFFF6FE08ED00E0FB
:1005E00000127A000400002000093D0008000020ED
:1005F00070477047704770477047704770B5044642
:1006000010464FF080750560051F28462C606FF07E
:100610000105061F304635604FF01235061F304683
:1006200035604FF00335061F304635604FF0023518
:10063000061F304635606D10061F30463560051FB9
:10064000284629604FF01135061F304635604FF0BF
:100650001035061F304635604FF00935061F30460D
:1006600035604FF00835061F304635604FF00735CE
:10067000061F304635604FF00635061F30463560A0
:100680004FF00535061F304635604FF00435061F24
:100690003046356070BD7047704770477047000046
:1006A000EFF3108072B6704780F310887047204CCB
:1006B000204D25604FF0000484F309881E4C4FF054
:1006C000010525701D4C4FF08055256062B6FEE790
:1006D00030B41A4C4FF08055256030BC704730B4B0
:1006E000164C4FF08055256030BC704700BF72B685
:1006F000EFF3098028B1203880E8F00F104909682D
:10070000086000B50F4880475DF804EB0E480F49BC
:100710000A7802700A480E490A680260106890E878
:10072000F00F203080F309884EF0040E62B6704757
:1007300020ED00E00000FFFF3E00002004ED00E09F
:1007400044000020970600083300002034000020F9
:100750004C0000207CB5002614E06946304601F0CC
:100760009BFE054665B9FA4850F8264044B1012C75
:1007700006D0D4E9020100EB810060640198A06416
:10078000701CC6B23F2EE8D97CBD70B5002400BFF6
:1007900002E0282001F08EFFEE4800780028F8D013
:1007A000ED4800686421B0FBF1F0EB4908600846B1
:1007B000006828B90020E9490870FF2001F0AFFE69
:1007C00000BFFFF76DFF0446E5480068E549086093
:1007D0000020E34908602046FFF766FFE148006813
:1007E000DD490968B0FBF1F0C0F16400DB49087035
:1007F000FFF703FFFFF7AEFF142001F05BFFE0E718
:1008000000B587B0032300228021D748CDE9032318
:10081000CDE901014FF6FE7300933E2300F5FE7211
:100820000021AFF2990001F049FC06AACFA13E20B9
:1008300001F0B5FD07B000BD70B5002400BF00BFDA
:10084000FFF72EFF0446C6480068401CC4490860F4
:100850002046FFF729FFFFF7CFFEF1E700B587B08D
:10086000032300228021C548CDE90323CDE90101FE
:100870004FF6FF7300933F2300F5FE720021AFF2A5
:10088000470001F01BFC06AABDA13F2001F087FD37
:1008900007B000BD04E0002200F8012B4A1E91B20F
:1008A0000029F8D1704770B5C821B948FFF7F2FFA9
:1008B00000230FE0581C84B203EB8300B44901EB22
:1008C000800504EB840001EB8006002028706E6038
:1008D000581C83B2092BEDD303EB8300AC4901EB29
:1008E00080050020287068600846AA49086070BD2D
:1008F00070B54FF47C71A848FFF7CCFF4FF48071BE
:100900009348FFF7C7FF002313E0581CC4B2C3EBA2
:10091000C30000EB4000A04901EB8005C4EBC4001C
:1009200000EB400001EB80066E619CA0E864581C5F
:10093000C3B20B2BE9D3C3EBC30000EB40009649D5
:1009400001EB80050020686194A0E86400209449D0
:10095000086091489349086070BD0021924A117067
:10096000002004E00021914A1154411CC8B208281B
:10097000F8D300218E4A11708E4A11708E4A116090
:100980008E4A1160704700208D4908608D490870BB
:100990008D4908708D4908708D4908708D4908602F
:1009A0006F4908606F4908606B49086069490870C1
:1009B000704710B5FFF71CFEFFF7E5FFFFF7CDFF0F
:1009C000FFF796FFFFF76FFF00F04EFF01F04BFAC5
:1009D000FFF744FFFFF714FFFFF70BFE10BD7C4845
:1009E0000078012808D177480078FF2804D275489C
:1009F0000078401C73490870704777496A4A12783A
:100A0000885C6A49095C744A515C01EBC001694A1F
:100A10001170704710B500246D480078012830D15E
:100A2000FFF73EFE04466748007820B1654800782D
:100A3000401E6449087063480078F8B9624800783D
:100A4000E0B9FFF7DAFF42485A49097850F8210027
:100A500059490860574800785549097888420DD0AF
:100A600055480068806B401C5349096888635948A1
:100A70000068401C57490860FFF731FE2046FFF729
:100A800013FE10BD10B5002451480078012811D183
:100A9000FFF706FE04464B48007840B94A48007804
:100AA000FF2804D248480078401C47490870204677
:100AB000FFF7FAFD10BD10B50024FFF7F1FD044665
:100AC00040480078F8B940480078E0B9FFF795FF52
:100AD0001F483849097850F82100374908603548DF
:100AE00000783349097888420DD033480068806B1C
:100AF000401C31490968886336480068401C354904
:100B00000860FFF7E5FD2046FFF7CEFD10BD10B5EC
:100B100000242F48007801286BD1FFF7C1FD04465F
:100B20002948007880B128480078401E264908707E
:100B30000846007848B92348007838B92046FFF7BE
:100B4000B3FDFFF7B8FF54E050E04BE046E0000093
:100B5000780500203000002028000020240000201C
:100B6000400000202C0000207801002075432F4F0A
:100B7000532D49492053746174000000780300200C
:100B800075432F4F532D49492049646C650000007F
:100B9000600000201C000020780600203F000000BC
:100BA00050000020480000203500002036000020C2
:100BB00033000020340000204C00002044000020BE
:100BC0005C00002031000020320000203F000020A7
:100BD0003E00002018000020E22800082046FFF711
:100BE00063FD06E02046FFF75FFD02E02046FFF7C9
:100BF0005BFD10BD10B5FF48007890B9FFF7FDFE12
:100C0000FD480078FD490870FD48FB49097850F817
:100C10002100FC49086008460068FB490860FFF7AE
:100C200046FD10BD10B50024022001F043FDFFF782
:100C300037FD04460020F54908602046FFF734FDE3
:100C4000142001F037FDFFF72BFD0446EF48006844
:100C5000EF4908600120EF4908702046FFF724FDA6
:100C600010BD70B50026FFF718FDFFF719FD064609
:100C7000E9480068401CE84908603046FFF714FD69
:100C8000DC480078012853D1E448007820B10128DD
:100C900004D0022809D103E001250BE0002509E07A
:100CA00001250120DD49087004E001250020DB4911
:100CB000087000BF00BF05B970BDD948046833E0B3
:100CC000FFF7EEFC0646E06A50B3E06A401EE062C1
:100CD000E06A28BB94F8300010F0370F08D014F801
:100CE000300F00F0C800207001206070303C02E03E
:100CF000002084F8310094F8300010F0080F0FD174
:100D00003434A078C74909780843C6490870207868
:100D1000C549085C6178084314F83419C24A505434
:100D200064693046FFF7C0FC94F832003F28C7D111
:100D3000C2E740F223107047704710B590F8342096
:100D400001F10B039C5C90F83530DB43DBB21C40B7
:100D500001F10B039C549B5C33B98B7A90F83640BD
:100D6000E443E4B223408B7210BD2DE9F04F0446FA
:100D70000D4616461F46A07AAC4911F8009004F1C2
:100D80000B0010F8090011F800A00AEBC90000F0F0
:100D9000FF0B9B4850F82B800020C8F82C00C8F8A7
:100DA000205098F83000F143C9B2084088F830006C
:100DB00088F8317098F8300010F0080F0FD198F8CB
:100DC000360098490978084396490870964810F803
:100DD000090098F835100843934901F809002146A5
:100DE0004046FFF7AAFF5846BDE8F08F10B5864A87
:100DF0001268D061844A126892F8343000F10B0214
:100E0000D35C814A126892F8352013437E4A1268F7
:100E100092F8344000F10B021355827A7A4B1B682A
:100E200093F836301A438272774A126892F8341077
:100E30007D4A525C744B1B6893F83530DB43DBB260
:100E40001A40794B5A541A46525C52B96E4A12688B
:100E500092F83620D243D2B2724B1B781A40714BB3
:100E60001A7010BD00228272002105E0002300F1FB
:100E70000B0253544A1CD1B20829F7D3704705E03E
:100E800011F8013B00F8013B531E9AB2002AF7D13A
:100E900070470146002002E0491C421CD0B20A788B
:100EA000002AF9D170472DE9FC5F04460D4616462D
:100EB0001F46DDE90D9ADDF8308000200190FFF734
:100EC000EFFB01905A48D0F800B0BBF1000F7ED084
:100ED0005749DBF8140008600198FFF7E5FBCBF8F1
:100EE00000508BF8324000208BF830008BF8310036
:100EF000CBF82C00CBF80490CBF80C80CBF8086032
:100F0000ABF810A0ABF812708BF83700E0108BF83C
:100F1000340004F007008BF833009BF834100120F4
:100F200088408BF836009BF83310012088408BF8FE
:100F300035000020CBF81C00CBF82400CBF82000B3
:100F4000CBF83800CBF84000CBF83C00CBF844009D
:100F5000CBF84800AFF2BC30CBF84C00002000903A
:100F600009E000210BF15000009A40F8221000988F
:100F7000401CC0B2009000980028F2D05846FFF7FD
:100F80008BFB5846FFF736FBFFF78AFB01901C48A6
:100F900040F824B022480068CBF814000020CBF8B9
:100FA00018001F48006818B11D480068C0F818B044
:100FB0001B48C0F800B09BF836001A49097808436E
:100FC000184908709BF834001749085C00E033E0CA
:100FD0009BF8351008439BF83410134A50541548B9
:100FE0000078401C134908700198FFF75DFB002052
:100FF000BDE8FC9F3E0000203400002033000020AC
:10100000780500204C000020440000204000002013
:1010100028000020300000205C0000205400002048
:10102000500000203500002036000020E228000893
:10103000480000203F0000200198FFF735FB4220C8
:10104000BDE8FC9F2DE9F05F04460D4616461F469D
:101050004FF0000B2078052804D0012038700020C4
:10106000BDE8F09F06F08009B9F1000F04D026F02A
:1010700080064FF0010A01E04FF0000A00203870AE
:10108000FFF70EFB83468EB3012E45D0022E02D011
:10109000032E57D114E0208900EA0508A84509D19C
:1010A000BAF1010F08D120896FEA080189B208401E
:1010B000208101E0702038705846FFF7F5FA49E0CA
:1010C000208900EA0508B8F1000F09D0BAF1010F34
:1010D00008D120896FEA080189B20840208101E027
:1010E000702038705846FFF7DFFA33E0FFE72089B9
:1010F000C04380B200EA0508A84507D1BAF1010F44
:1011000006D1208940EA0800208101E07020387073
:101110005846FFF7C9FA1DE02089C04380B200EAB3
:101120000508B8F1000F07D0BAF1010F06D12089E8
:1011300040EA0800208101E0702038705846FFF72F
:10114000B3FA07E05846FFF7AFFA4FF000086F20F8
:10115000387000BF00BF404682E72DE9F0410446E9
:101160000D460027FF48007820B11020287000208D
:10117000BDE8F081FFF794FA0746FB48066886B1A0
:1011800000684068F849086005203070348100200C
:101190007060F6A0F0603846FFF786FA00202870ED
:1011A00004E03846FFF780FA722028703046DFE707
:1011B00030B5436804682BB9C26854602CB100256F
:1011C000656002E01C6004B16360816800254D62C7
:1011D00030BDF0B504460D46A66800202836706084
:1011E0003580307A00F0DF00307200207072307A83
:1011F000283E88B93436B078DD4909780843DC499F
:1012000008703078DB49085C7178084316F83419A7
:10121000D84A5054012700E000272046FFF7C8FFB6
:101220003846F0BD2DE9F04704460D4616464FF00E
:10123000000ACC48007820B10F2030702046BDE86D
:10124000F0872078052803D0012030702046F6E78B
:10125000FFF726FA8246606808B1012700E0002700
:1012600015B1012D3CD119E08FB9C0A0E06000207C
:101270002070BD480068606000202081BA4804608A
:101280005046FFF711FA00203070804605E05046C6
:10129000FFF70AFA49203070A04628E0D4F80490FD
:1012A00005E000214846FFF794FFD9F80090B9F116
:1012B000000FF6D1ADA0E06000202070AA480068C1
:1012C000606000202081A84804605046FFF7ECF9D8
:1012D000012F01D1FFF7EFFB00203070804606E0C0
:1012E0005046FFF7E1F907203070A04600BF00BF6D
:1012F0004046A4E72DE9F04104460D461646002776
:101300009848007820B1112030700020BDE8F081AD
:10131000FFF7C6F907462078052806D03846FFF7BC
:10132000C3F9012030700020F0E7E06828602868E9
:10133000FFF7AFFD80463846FFF7B6F90020307062
:101340004046E3E72DE9F04104460D4616460027E6
:101350008448007818B112203070BDE8F081FFF7A2
:101360009FF907462078052805D03846FFF79CF9F5
:1013700001203070F1E7E5603846FFF795F900206D
:101380003070EAE7F0B5059D7B4F3F6897F8307005
:1013900047F02007DFF8E0C1DCF800C08CF83070BF
:1013A0000027DFF8D4C1DCF800C08CF83170724F30
:1013B0003F68FD62704F3F6879620A828B746E4F9E
:1013C0003F688F6047680F6000274F60C8604668BD
:1013D00006B171604160684F3F6897F83440654FCF
:1013E0003F5DDFF894C1DCF800C09CF835C06FEABF
:1013F0000C0C0CF0FF0C07EA0C07DFF878C10CF8B6
:10140000047067463F5D7FB95B4F3F6897F8367061
:10141000FF43FFB2DFF858C19CF800C007EA0C0791
:10142000DFF84CC18CF80070F0BD2DE9F04F89B0A9
:1014300004460D4616461F46DDF8488000200290FF
:101440004848007830B1022088F80000002009B038
:10145000BDE8F08F4948007820B10D2088F80000E1
:101460000020F4E72078052804D0012088F8000047
:101470000020ECE706F080000390039820B106F00E
:101480007F064FF0010B01E04FF0000BFFF708F96A
:101490000290002E51D0012E63D0022E02D0032ED6
:1014A0006ED124E0208900EA0509A94514D1BBF1D9
:1014B000010F05D120896FEA090189B20840208116
:1014C0002D480068A0F828900298FFF7EDF800205A
:1014D00088F800004846BAE733462A4604A9204661
:1014E0000097FFF74FFF0298FFF7DEF88BE02089A7
:1014F00000EA0509B9F1000F14D0BBF1010F05D1C5
:1015000020896FEA090189B2084020811A480068E1
:10151000A0F828900298FFF7C7F8002088F800008C
:10152000484694E733462A4604A920460097FFF729
:1015300029FF0298FFF7B8F865E02089C04380B220
:1015400000EA0509A94523D1BBF1010F03D1208988
:1015500040EA0900208108480068A0F82890029815
:101560000FE020E031000020200000203F000000BC
:10157000350000203600002044000020320000200A
:1015800037E0FFF791F8002088F8000048465EE752
:1015900033462A4604A920460097FFF7F3FE029837
:1015A000FFF782F82FE02089C04380B200EA0509E6
:1015B000B9F1000F12D0BBF1010F03D1208940EA2D
:1015C00009002081BC480068A0F828900298FFF725
:1015D0006BF8002088F80000484638E733462A4672
:1015E00004A920460097FFF7CDFE0298FFF75CF8AC
:1015F00009E00298FFF758F84FF000096F2088F8CB
:101600000000484623E700BFFFF755FAFFF748F808
:101610000290A948006890F8310038B3A6480068E5
:1016200090F831A00020A449096881F8310004A88D
:10163000FFF7BEFD0020A049096881F8300002983C
:10164000FFF732F84FF00009BAF1010F07D0BAF1F5
:10165000020F03D10E2088F8000004E000BF0A202A
:1016600088F8000000BF00BF4846F0E692480068D6
:10167000B0F82890BBF1010F1ED176B1012E0DD02C
:10168000022E02D0032E0ED100E000BF20896FEAA7
:10169000090189B2084020810DE000BF208940EA9D
:1016A0000900208107E00298FEF7FEFF6F2088F80E
:1016B00000000020CBE600BF0298FEF7F5FF0020F7
:1016C00088F800004846C2E670B50025FEF7E8FF3E
:1016D000054679480068048D2846FEF7E5FF204658
:1016E00070BD2DE9FC5F04460D4616461F460020DE
:1016F00000902078052804D0012038700020BDE833
:10170000FC9FFEF7CDFF009016B1012E0AD105E037
:101710002089E94389B2084020810AE020892843D2
:10172000208106E00098FEF7BFFF7120387000208E
:10173000E5E700BF4FF00009D4F8048065E098F8B1
:10174000120068B3012841D0022802D0032852D1E8
:1017500013E02089B8F8101000EA010AB8F8100068
:10176000504509D151464046FFF733FD8346BBF152
:10177000010F01D14FF0010944E02089B8F81010A1
:1017800000EA010ABAF1000F09D051464046FFF7BE
:1017900020FD8346BBF1010F01D14FF0010931E07B
:1017A0002089C04380B2B8F8101000EA010AB8F8E6
:1017B0001000504509D151464046FFF70AFD8346C7
:1017C000BBF1010F01D14FF001091BE02089C0439B
:1017D00080B2B8F8101000EA010ABAF1000F09D07F
:1017E00051464046FFF7F5FC8346BBF1010F01D19E
:1017F0004FF0010906E00098FEF756FF6F203870A1
:1018000000207CE700BFD8F80080B8F1000F96D127
:101810000098FEF749FFB9F1010F01D1FFF74BF92D
:10182000FEF73EFF0090208901900098FEF73CFFF4
:1018300000203870019862E72DE9F04104460D461A
:1018400000272078052804D0012028700020BDE85A
:10185000F081FEF725FF074626893846FEF724FF6C
:10186000002028703046F2E72DE9F041502113485E
:10187000FFF710F800240EE0601C85B20F4800EB63
:10188000041600EB0517002030707760AFF22430AB
:10189000F060601C84B2042CEED3084800EB041600
:1018A000002030707060AFF23C30F06003480449B3
:1018B0000860BDE8F08100004400002028010020FD
:1018C000200000202DE9F04104460D464FF00008AD
:1018D0002078022804D0012028700020BDE8F08183
:1018E000FEF7DEFE80466768F88A78B13969081D20
:1018F00038610E68F88A401EF882B96838698842F3
:1019000001D1786838610020287002E01F2028701B
:1019100000264046FEF7C8FE3046DFE72DE9F041DD
:1019200004460D464FF00008FA48007810B1002038
:10193000BDE8F081FEF7B4FE8046F748066800680F
:1019400020B1F54800684068F34908604046FEF75A
:10195000ABFE3EB3FEF7A4FE8046F0480768C7B171
:1019600000680068ED4908604046FEF79DFE7C6017
:1019700004EB8500B860FC603C61BD820020F88209
:10198000022030700020308177603046FFF76AFA1D
:1019900008E0E14800687060DF4806604046FEF7F6
:1019A00083FE00263046C3E72DE9F04704460D4686
:1019B00016464FF0000A2078022804D0012030702B
:1019C0002046BDE8F087D348007818B10F2030706A
:1019D0002046F6E7FEF764FE8246A07A08B10127AA
:1019E00000E0002715B1012D48D120E0C7B9D4F897
:1019F0000480CA480068C8F80000C848C0F80080E1
:101A000000202070C4480068606000202081C24827
:101A100004605046FEF748FE00203070814605E025
:101A20005046FEF741FE49203070A1462DE005E00A
:101A30000023042219462046FFF797F9A07A0028D0
:101A4000F6D1D4F80480B5480068C8F80000B3485F
:101A5000C0F8008000202070AF480068606000205F
:101A60002081AD4804605046FEF71EFE012F01D1D3
:101A7000FFF721F800203070814606E05046FEF75F
:101A800013FE07203070A14600BF00BF484698E70C
:101A900070B504460026FEF703FE064665686868D2
:101AA000E860686828610020E8823046FEF7FCFDA7
:101AB000002070BD2DE9F04704460D4616464FF054
:101AC00000092078022804D0012030700020BDE8F1
:101AD000F0879048007818B1022030700020F6E7B7
:101AE0008F48007818B10D2030700020EFE7FEF726
:101AF000D7FD8146D4F80480B8F81600D8B1D8F8DC
:101B00001010081DC8F810000F68B8F81600401E25
:101B1000A8F81600D8F80810D8F81000884203D1A9
:101B2000D8F80400C8F810004846FEF7BDFD0020B4
:101B300030703846CBE77B48006890F8300040F0C2
:101B400004007849096881F8300000207549096867
:101B500081F8310073480068C5622046FFF746F9F6
:101B60004846FEF7A1FDFEF7A6FFFEF799FD814668
:101B70006C48006890F8310020B101280DD002288F
:101B80000AD105E067480068076A002030700DE060
:101B900000270E20307009E000BF21466148006830
:101BA000FFF7CBF800270A20307000BF00BF0020ED
:101BB0005C49096881F830005A49096881F83100A8
:101BC00058490968C8615749096808624846FEF7DC
:101BD0006BFD38467BE72DE9F04104460D4616467D
:101BE0004FF000082078022804D001203070002037
:101BF000BDE8F081FEF754FD8046A07A20B30027AF
:101C00007DB1012D0CD107E00223042200212046E2
:101C1000FFF7ABF8781CC7B2A07A0028F4D109E02E
:101C200000BF0223042200212046FFF79EF8781C03
:101C3000C7B200BF00BF4046FEF736FDFEF73BFFD0
:101C40000E2030703846D3E74046FEF72DFD0020C9
:101C50003070CDE72DE9F04104460D46002720788D
:101C6000022802D00120BDE8F081FEF719FD0746E9
:101C7000A07A60B10023042229462046FFF775F8B8
:101C80003846FEF711FDFEF716FF0020EBE7666809
:101C9000F08AB18A884204DB3846FEF705FD1E2033
:101CA000E1E7F168081DF0600D60F08A401CF082E9
:101CB000D6E90210884201D17068F0603846FEF71C
:101CC000F3FC0020CFE72DE9F04104460D46002744
:101CD0002078022802D00120BDE8F081FEF7E0FC68
:101CE0000746A07A60B10023042229462046FFF768
:101CF0003CF83846FEF7D8FCFEF7DDFE0020EBE7A7
:101D00006668F08AB18A88420EDB3846FEF7CCFC62
:101D10001E20E1E7310000201C00002058000020B8
:101D2000320000204400002071683069884201D1EF
:101D3000B06830613069001F306130690560F08A39
:101D4000401CF0823846FEF7AFFC0020C4E72DE9C6
:101D5000F04104460D4616464FF000082078022850
:101D600002D00120BDE8F081FEF79AFC8046A07AFF
:101D7000E8B116F0010F0AD005E00023042229463D
:101D80002046FEF7F2FFA07A0028F6D105E00023F6
:101D9000042229462046FEF7E8FF4046FEF784FC71
:101DA00016F0040F01D1FEF786FE0020DAE767681F
:101DB000F88AB98A884204DB4046FEF775FC1E208B
:101DC000D0E716F0020F0BD079683869884201D14C
:101DD000B86838613869001F38613869056009E002
:101DE000F968081DF8600D60D7E90210884201D13A
:101DF0007868F860F88A401CF8824046FEF754FC88
:101E00000020AFE72DE9F04704460D464FF0000AE9
:101E10002078022802D00120BDE8F087FEF740FCC0
:101E20008246A07A287404F10B0805F108090027FE
:101E300005E018F8010B09F8010B781CC7B2082F50
:101E4000F7D36668F08A18B130690068286001E04D
:101E500000202860F08AA880B08AE8805046FEF70B
:101E600023FC0020D8E72DE9F04178211048FEF747
:101E700011FD00240DE0601C85B204EB44000C4908
:101E800001EBC00705EB450001EBC0063E60601C9E
:101E900084B2042CEFD304EB4400054901EBC007E6
:101EA00000203860084603490860BDE8F081000062
:101EB000680A0020580000202DE9FF5F04460D4607
:101EC00000200090FEF7ECFB0090F84850F8250049
:101ED00030B10098FEF7E8FB282004B0BDE8F09F81
:101EE000FF2C03D1F248006890F83240EF4850F8D8
:101EF000247027B90098FEF7D7FB2920EDE7012FC2
:101F000004D10098FEF7D0FB4320E6E74FEAE5084E
:101F100005F00709012000FA08F000F0FF0A01208F
:101F200000FA09F0C0B202900020E04941F8240014
:101F3000084640F8257097F83400039097F836006B
:101F4000019097F835B0DB490398085C10EA0B0F55
:101F500023D008460399405C6FEA0B01C9B20840E0
:101F6000D44A0399505411460398085C38B9D248B2
:101F700000780199C943C9B20840CF490870CE48DA
:101F8000007840EA0A00CC490870CA4810F80800F6
:101F900002990843C74901F80800FE6916B306F123
:101FA0000B000399415C6FEA0B00C0B2014006F1DF
:101FB0000B00039A81540399405C28B9B07A0199C7
:101FC000C943C9B20840B072B07A40EA0A00B072A0
:101FD00006F10B0010F808100298014306F10B00FF
:101FE00000F8081087F8325087F8348087F833906B
:101FF00087F836A0029887F835000098FEF754FB62
:10200000AE480078012801D1FEF755FD002064E7B5
:102010002DE9FE4F04460D46164698464FF000093E
:10202000FEF73EFB8146A648007828B14846FEF7F9
:102030003BFB3C20BDE8FE8F9C4850F8280058BB75
:1020400001209A4941F828004846FEF72DFB00235D
:10205000324629462046FEF7D1FA824600230093F5
:1020600001931A46514640460293FEF71CFF07466D
:1020700037B99248007801280CD1FEF71CFD09E021
:10208000FEF70EFB81460020884941F828004846AB
:10209000FEF70AFB3846CDE74846FEF705FB282049
:1020A000C8E712F0010F08D012F0020F05D002E0CD
:1020B000491E002308C00029FAD170472DE9F04FCE
:1020C00087B004460D4616461F46DDE912ABDDE932
:1020D000108900200490FEF7E3FA04907848007815
:1020E00030B10498FEF7E0FA3C2007B0BDE8F08F6D
:1020F0006E4850F82700002832D101206B4941F882
:1021000027000498FEF7D0FA51464846149AFFF784
:10211000C8FF324629462046149BFEF76FFA069008
:10212000149BCDE900AB029343464A4638460699D4
:10213000FEF7B9FE0590059830B96048007801288F
:102140000CD1FEF7B8FC09E0FEF7AAFA04900020D3
:10215000564941F827000498FEF7A6FA0598C4E707
:102160000498FEF7A1FA2820BFE72DE9F0410446C4
:1021700000275348007810B14020BDE8F0813F2C83
:1021800001D13E20F9E7FEF78BFA0746FF2C03D179
:102190004748006890F83240444850F8246026B917
:1021A0003846FEF781FA4320E7E7012E04D138468E
:1021B000FEF77AFA3D20E0E716F8340F3D49085C57
:1021C0007178C943C9B2084031783A4A505416F878
:1021D00034091146085C40B996F83600C043C0B2D5
:1021E00035490978084034490870F06918B130461B
:1021F000F169FEF7A2FD756A15B12846FEF7D8FF12
:102200000020F06286F8300086F831002D48007812
:10221000FF2804D22B480078401C2A490870384611
:10222000FEF742FAFEF788FDFEF73AFA0746254820
:10223000007820B123480078401E224908703046BB
:10224000FEF7D9F920480078401E1F490870002089
:10225000164941F82400B06930B9002071698861DD
:102260001A497069086005E0D6E905014861D6E9B8
:10227000051088611648006870611548066015A051
:10228000F0643846FEF710FA0C480078012801D1B6
:10229000FEF711FC002070E72DE9F041044600270D
:1022A0003F2C19D13E20BDE8F081000078050020C8
:1022B0004400002036000020350000203E000020B1
:1022C00031000020320000203F000020500000209C
:1022D000480000203F000000FF2C0CD1FEF7E0F981
:1022E0000746EE48006890F837503846FEF7DCF9AC
:1022F0002846BDE8F081FEF7D3F90746E84850F8D4
:10230000246026B93846FEF7CFF94320F1E7012EC5
:1023100004D13846FEF7C8F93D20EAE73F2086F8A9
:1023200037003846FEF7C0F90020E2E72DE9F04714
:1023300004460D4616464FF00008DA48007820B1F2
:10234000112030700020BDE8F087FEF7A9F9804623
:10235000FF2C03D1D148006890F83240D04850F8A3
:10236000247037B94046FEF79FF9432030700020B3
:10237000E9E7012F06D14046FEF796F94320307079
:102380000020E0E7F86C28602868FEF782FD8146AF
:102390004046FEF789F9002030704846D3E72DE922
:1023A000F04104460D4616464FF00008BD4800783F
:1023B00018B112203070BDE8F081FEF771F9804647
:1023C000FF2C03D1B548006890F83240B44850F86B
:1023D00024702FB94046FEF767F943203070EAE7D2
:1023E000012F05D14046FEF75FF943203070E2E748
:1023F000FD644046FEF758F900203070DBE770B509
:1024000004460026FEF74CF90646A54850F824502D
:1024100025B93046FEF748F9462070BD012D04D19C
:102420003046FEF741F94320F7E795F8300010F009
:10243000080F2CD015F8300F00F0F700287015F8B1
:102440003009F8B9E86AC8B93435A87896490978E6
:1024500008439549087028789449085C69780843CE
:1024600015F83419914A50543046FEF71DF990483A
:102470000078012809D1FEF71EFB06E03046FEF782
:1024800013F902E03046FEF70FF90020C5E73046A9
:10249000FEF70AF94420C0E72DE9F04704460D464F
:1024A0004FF0000A002028606860FEF7F9F88246C5
:1024B000FF2C03D17948006890F83240784850F8F2
:1024C00024602EB95046FEF7EFF84320BDE8F087B0
:1024D000012E04D15046FEF7E7F84320F6E7308A94
:1024E00010F0010F04D15046FEF7DEF84520EDE76D
:1024F0004FF00008D6F80C90B7685046FEF7D4F8B5
:1025000001E008F1010802CF0029FAD04FEA880063
:102510002860A9EB0800800068600020D6E72DE95C
:10252000F04104464FF00008FEF7BAF88046FF2C51
:1025300005D15A48006890F83240012508E0574814
:10254000006890F83200A04201D1012500E000258A
:10255000534850F824702FB94046FEF7A5F848209C
:10256000BDE8F081012F04D14046FEF79DF84320DD
:10257000F6E797F834604D48805D97F83510C94309
:10258000C9B20840494988550846805D40B997F866
:102590003600C043C0B24449097808404249087037
:1025A00097F8300040F0080087F830004046FEF70A
:1025B0007BF8012D01D1FEF77EFA0020D0E72DE94E
:1025C000F04104460D460027FEF76AF80746FF2C47
:1025D00003D13248006890F83240314850F8246006
:1025E0002EB93846FEF760F82920BDE8F081012EAB
:1025F00004D13846FEF758F84320F6E75422314616
:102600002846FEF73CFC3846FEF74EF80020ECE783
:102610002DE9F04704460D4616460027FEF740F820
:102620000746FF2C03D11D48D0F8008002E01C486B
:1026300050F8248008F1500050F825903846FEF7F5
:1026400033F8002030704846BDE8F0872DE9F047A8
:1026500004460D46164698464FF00009FEF720F84E
:102660008146FF2C02D10D48076802E00C4850F863
:10267000247007F1500040F825604846FEF714F832
:10268000002088F80000BDE8F08710B50348006816
:10269000FEF704F8FF20FFF768FD10BD440000209E
:1026A0007805002031000020350000203600002091
:1026B0003E00002070B5044600266448007800B152
:1026C00070BD6348007800B1FAE73CB3FDF7E8FF5E
:1026D00006466048006890F834505F48405D5D49A8
:1026E000096891F83510C943C9B208405A4948559C
:1026F0000846405D50B95748006890F83600C0431E
:10270000C0B25649097808405449087051480068D9
:10271000C4623046FDF7C8FFFEF7CDF9D0E72DE9DA
:10272000F04104460D4616461F464848007810B151
:102730005520BDE8F0814648007808B13220F8E71E
:10274000B81CC82148434FF47A71B0FBF1F14FF443
:1027500061606043C5EB051200EB8200304400EB82
:10276000C00202EB001001EBC0084046FFF7A2FFD9
:102770000020DEE770B5044600263F2C01D32A2056
:1027800070BDFDF78DFF0646354850F8245025B939
:102790003046FDF789FF4320F2E7012D04D1304692
:1027A000FDF782FF4320EBE7E86A20B93046FDF7EA
:1027B0007BFF5020E4E70020E86295F8300010F03D
:1027C000370F08D015F8300F20F03700287001209F
:1027D0006870303D02E0002085F8310095F8300047
:1027E00010F0080F15D13435A8781C490978084332
:1027F0001A49087028781849085C6978084315F860
:102800003419154A50543046FDF74EFFFEF753F980
:1028100002E03046FDF748FF0020B1E770B5002523
:10282000FDF73EFF05460F4804682846FDF73CFFCC
:10283000204670BD70B504460025FDF731FF054602
:10284000084804602846FDF72FFF70BD31000020C6
:102850003200002044000020360000203500002017
:10286000780500205C00002070477047704775466F
:1028700000F028F8AE4605006946534620F00700F0
:10288000854618B020B5FDF7AFFCBDE820404FF0FD
:1028900000064FF000074FF000084FF0000B21F04A
:1028A0000701AC46ACE8C009ACE8C009ACE8C00917
:1028B000ACE8C0098D4670470446AFF3008020465F
:1028C000FDF77FFC00487047E00A002003494FF005
:1028D0001800ABBE7047000009000000260002008F
:1028E0007047000001000200010003000100020027
:1028F00001000400010002000100030001000200C9
:1029000001000500010002000100030001000200B7
:1029100001000400010002000100030001000200A8
:102920000100060001000200010003000100020096
:102930000100040001000200010003000100020088
:102940000100050001000200010003000100020077
:102950000100040001000200010003000100020068
:102960000100070001000200010003000100020055
:102970000100040001000200010003000100020048
:102980000100050001000200010003000100020037
:102990000100040001000200010003000100020028
:1029A0000100060001000200010003000100020016
:1029B0000100040001000200010003000100020008
:1029C00001000500010002000100030001000200F7
:1029D00001000400010002000100030001000200E8
:1029E00001000000042A0008000000206000000030
:1029F0006C010008642A000860000020E01000005C
:102A0000880100080000000000A24A040000000045
:102A1000000000000102030406070809000000008E
:102A200000000000000000000000000000000000A6
:102A30000000000000000000000000000000000096
:102A40000000000000000000000000000000000086
:102A50000000000000000000000000000000000076
:042A60000000000072
:0400000508000131BD
:00000001FF
