:020000040800F2
:10000000004B0020E9330008ED000008EF00000875
:10001000F1000008F3000008F500000800000000EF
:10002000000000000000000000000000F7000008D1
:10003000F7000008F70000089F3200087933000835
:10004000F9050008FD05000801060008050600087E
:10005000090600080D06000811060008150600082C
:10006000190600081D0600082106000825060008DC
:10007000290600082D06000831060008350600088C
:10008000390600083D06000841060008450600083C
:10009000490600084D0600085106000855060008EC
:1000A000590600085D06000861060008650600089C
:1000B000690600086D06000871060008750600084C
:1000C000790600087D0600088106000885060008FC
:1000D000890600088D0600089106000895060008AC
:1000E000990600089D060008A1060008FEE7FEE745
:1000F000FEE7FEE7FEE7FEE7DFF80CD003F062F96B
:10010000004800476B010008004B002003F043F952
:1001100001F0ADFF022000F0D9F94FF4487400223D
:1001200023461146104603F006F8012000F0DBF9E3
:100130001CA003F05DF9002223461146104602F090
:10014000FAFF012000F0C2F9E9E710B503F023F946
:1001500001F08DFF0623164A0021164802F00DFD1E
:10016000BDE81040022002F04EBF10B500F0DEF9ED
:1001700001F0EDFE00F027F900F01BFA02230E4A11
:1001800000210E4802F0F9FC002003F050F801F0C5
:100190005AFF002010BD7047704770477047704786
:1001A0007047000068656C6C6F6F730A0000000098
:1001B000440400200D010008440200204B01000807
:1001C00070B50446CE4DE1B2284600F080FB802198
:1001D000284600F0D1FB0028F9D0204670BD38B584
:1001E00000214FF0006001F03EF926208DF800005C
:1001F00001208DF8010005218DF802108DF8030013
:10020000684601F0B1F8BF4D40F225540122214665
:10021000284600F009FB2146284600F0D5FB38BDF2
:1002200030B585B04FF4165001900020ADF80800AD
:10023000ADF80A00ADF80C00ADF810000C20ADF8D8
:100240000E000121480400F02EFE684600F083FCF9
:100250000424ADF8004003208DF8020018208DF82A
:100260000300A94D6946284600F023FC684600F0CB
:1002700072FC0821ADF800108DF80340694628464D
:1002800000F017FC9F4C01A9204600F05EFA012106
:10029000204600F0BDFAFFF7A2FF05B030BD38B52B
:1002A0004FF40070ADF8000003208DF80200182014
:1002B0008DF80300944C6946204600F0FAFB2115A6
:1002C000ADF8001004218DF803106946204600F0B7
:1002D000F0FB38BD38B50121102000F0D9FD68468B
:1002E00000F039FC2020ADF8000004248DF8034014
:1002F000864D6946284600F0DCFB684600F02BFC82
:100300000221ADF800108DF803406946284600F040
:10031000D0FB38BD38B50121082000F0B9FD01211E
:10032000202000F0B5FD2020ADF8000003258DF859
:10033000025010248DF803406946754800F0B9FB5F
:100340004020ADF800008DF802508DF8034069465A
:10035000704800F0AEFB38BD30B587B001214802CF
:1003600000F096FD0121082000F092FD01A800F0A8
:10037000F2FB0125ADF8045000248DF8074001A9D7
:10038000634800F096FB02948DF80C408DF80D50F8
:100390004FF46020049005948DF818505E4C02A92B
:1003A000204600F0FBFD022301220821204600F038
:1003B0007FFE0121204600F019FE0121204600F0B9
:1003C00050FE07B030BD1FB54FF41650009000200E
:1003D000ADF80400ADF80600ADF80800ADF80C006B
:1003E0000C20ADF80A0000F031FC4FF480342046B8
:1003F00000F044FC00F070FC002000F0A7FC00209E
:1004000000F0B2FCA01100F0A8FC601000F0C3FCEA
:100410000121880300F03CFD0121042000F038FD9B
:10042000022000F045FF102000F054FF4FF4E011CF
:10043000204600F074FC012000F079FC392000F027
:1004400036FC0028FAD0022000F074FC00F079FCA1
:100450000828FBD1FFF780FFFFF75CFFFFF73AFFAB
:10046000FFF71DFF264C6946204600F06EF901217A
:10047000204600F0CDF9FFF7D3FE1FBD00B585B0D3
:10048000684600F0ADFC019805B000BDF6E70146F6
:100490000020012902D1204800F050BE704710B55D
:1004A00000241A4A012802D002280DD106E020219A
:1004B000104600F058FB38B9012405E0022110462F
:1004C00000F051FB00B90224204610BD012805D0E0
:1004D000022807D140210F4800F059BB20210C48C9
:1004E00000F055BB7047012805D0022807D14021F4
:1004F000084800F04EBB2021054800F04ABB704779
:100500000038014000440040000801400010014054
:10051000000C0140001401400024014070472A28CB
:1005200003D21030C0B201F09FB8704701F052B84A
:100530002A2803D21030C0B201F0ECB8704770B571
:1005400004460D462A2C08D201F048F8554941F8D6
:100550002450BDE8704001F045B870BD70B5044648
:100560000D462A2C0CD201F039F806461034E0B2C0
:10057000294601F025F93046BDE8704001F032B857
:1005800070BD10B5484C40F22551204600F0FEF9F0
:1005900000280CD0204600F09EF90146204600F0CD
:1005A00096F98021204600F0E7F90028F9D010BD27
:1005B000704710B500243D492046FFF7C0FF641C7A
:1005C0002A2CF8D3BDE8104039492520B7E710B5EB
:1005D000044601F003F8374A1178491C117001F004
:1005E00001F82A2C04D22F4850F8240000B180478B
:1005F000BDE8104001F0CABC0020E8E70120E6E7B2
:100600000220E4E70320E2E70420E0E70520DEE73C
:100610000620DCE70720DAE70820D8E70920D6E73C
:100620000A20D4E70B20D2E70C20D0E70D20CEE73C
:100630000E20CCE70F20CAE71020C8E71120C6E73C
:100640001220C4E71320C2E71420C0E71520BEE73C
:100650001620BCE71720BAE71820B8E71920B6E73C
:100660001A20B4E71B20B2E71C20B0E71D20AEE73C
:100670001E20ACE71F20AAE72020A8E72120A6E73C
:100680002220A4E72320A2E72420A0E725209EE73C
:1006900026209CE727209AE7282098E7292096E73C
:1006A0002A2094E74804002000380140B1050008E2
:1006B000830500080A00002010B5C64A811A1315E8
:1006C00090422BD00FDCC44940181CD098423BD13B
:1006D00004020121204600F0FCFB2046BDE810404A
:1006E000002100F0F6BB994223D0B1F56C4F2BD11D
:1006F00001218C03204600F0E1FB2046BDE81040BC
:10070000002100F0DBBB01214C04204600F0E1FB9E
:100710002046BDE81040002100F0DBBB0121CC04E5
:10072000204600F0D6FB2046BDE81040002100F036
:10073000D0BB01210C05204600F0CBFB2046BDE8D4
:100740001040002100F0C5BB10BD30B585B0044697
:100750000D46208A4CF6FF710840E988014321824A
:10076000A1894EF6F3100140A8882A8910436A89AE
:100770000A431043A081A08A4FF6FF410840A9898F
:100780000143A182684600F02BFB9448844201D1CA
:10079000039800E0029800EBC00101EB001029680B
:1007A0008900B0FBF1F06423B0FBF3F109010A0901
:1007B0006FF018056A4300EB8200322202EB001052
:1007C000B0FBF3F000F00F000843208105B030BD0E
:1007D0004FF41651016000218180C18001810C22FB
:1007E00042818181704710B5038A4FF2FF021340A6
:1007F0000A884C8822438C88C9880C4322431A43B8
:10080000028210BD0021018041808180C18070473B
:10081000002904D0818941F4005181817047818988
:1008200021F400518181704710B5C1F3421301F0EA
:100830001F040121A140012B07D0022B07D0143047
:100840003AB102680A43026010BD0C30F8E710307C
:10085000F6E702688A43026010BD002A03D0828A4C
:100860000A4382827047828A8A4382827047028A60
:1008700022F00F020282028A0A43028270478289B2
:1008800022F40062828182890A43828170470029B2
:1008900004D0818941F0020181817047818921F072
:1008A000020181817047028A22F020020282028ABC
:1008B0000A4302827047002904D0018A41F4804132
:1008C00001827047018A21F4804101827047C1F39F
:1008D0000801818070478088C0F3080070478189D3
:1008E00041F0010181817047028BD2B20283028BF9
:1008F00042EA012101837047028B02F47F420283A6
:10090000028B0A4302837047002904D0818A41F098
:10091000200181827047818A21F020018182704705
:10092000002904D0818A41F0100181827047818AB8
:1009300021F0100181827047002904D0818A41F0A2
:10094000080181827047818A21F008018182704705
:10095000828A22F004028282828A0A43828270475B
:10096000002904D0818A41F0020181827047818A86
:1009700021F00201818270470246002012880A425B
:1009800000D001207047C9430180704770B5002432
:10099000C1F3421301F01F05012606FA05F2012BEF
:1009A0000CD0022B0DD0838A1340090A8E40008898
:1009B00030400BB100B10124204670BD8389134043
:1009C000F3E7038A1340F0E70A0A01219140C94383
:1009D00001807047004C004000BCFFBF0038014060
:1009E00010B5964A811A1315D414904237D010DCF2
:1009F000934940181FD0984227D0A0424DD10121E1
:100A0000102000F05BFA0021BDE81040102000F03B
:100A100055BA99422DD0A14235D0B1F5406F3CD1A5
:100A200001210C02204600F049FA2046BDE81040A2
:100A3000002100F043BA0121042000F03FFA002118
:100A4000BDE81040042000F039BA0121082000F070
:100A500035FA0021BDE81040082000F02FBA01212E
:100A6000202000F02BFA0021BDE81040202000F0EB
:100A700025BA0121402000F021FA0021BDE81040F4
:100A8000402000F01BBA0121802000F017FA00215D
:100A9000BDE81040802000F011BA10BD10B5012152
:100AA000084600F00BFA0021BDE81040012000F0DC
:100AB00005BA2DE9F0430022CC7804F00F03E406D8
:100AC00001D58C7823430C784FF00F0714F0FF0FFB
:100AD0004FF0010C1BD005680CFA02F40E8826407A
:100AE000A64210D1960007FA06F825EA080503FA8F
:100AF00006F848EA0505CE78282E00D14461CE7864
:100B0000482E00D10461521C082AE5D305600A88EA
:100B1000FF2A1ED94568002202F108060CFA06F4E5
:100B20000E882640A64210D1960007FA06F825EA5C
:100B3000080903FA06F545EA0905CE78282E00D102
:100B40004461CE78482E00D10461521C082AE3D3B8
:100B50004560BDE8F0834FF6FF710180022181708E
:100B60000421C17070470246002092680A4200D0FA
:100B700001207047806880B2704702460020D2682A
:100B80000A4200D001207047C06880B270470161FE
:100B9000704741617047002A01D00161704741618F
:100BA0007047C160704741F4803282618161826127
:100BB00081698069704710B5224B1A684FF68074BE
:100BC000224042EA00100843186010BD1E49C86167
:100BD0007047F0B51B4D6B68C0F30342440D26010E
:100BE00084B2C0F30157B440032F07D0C0020CD524
:100BF00003209040834343F0706209E023F0706269
:100C0000686820F07060686002E0A34343F070629F
:100C100001B122436A60F0BD10B58A07120F0F239D
:100C2000934021F00304074921448C689C438C6065
:100C30008B68904003438B6010BD0000001401409E
:100C400000F8FEBF0000014000002042B4480168E7
:100C500041F0010101604168B24A11404160016800
:100C6000B14A11400160016821F4802101604168AE
:100C700021F4FE014160002181607047A8490A68A3
:100C800022F480320A600A6822F480220A60B0F5F9
:100C9000803F07D0B0F5802F03D1086840F4A02032
:100CA00008607047086840F4803008607047034669
:100CB000002059099A4A01290AD002290AD0516A0A
:100CC00003F01F02012393400B4200D00120704724
:100CD0001168F5E7116AF3E730B5944C40F2FF155F
:100CE0003120FFF7E4FF20706068401C60602078CE
:100CF00010B96068A842F3D13120FFF7D8FF08B1DE
:100D0000012030BD002030BD854A116821F0F80176
:100D100041EAC00010607047854908607047804B09
:100D20005A6822F47C120843104358607047804987
:100D3000086670477A4A516821F003010143516007
:100D400070477748406800F00C007047744A51685B
:100D500021F0F001014351607047714A516821F45C
:100D6000E0610143516070476D4A516821F4605160
:100D700041EAC00050607047694A002903D0517AA7
:100D8000014351727047517A8143517270476849EB
:100D9000D83108607047624A516821F440410143EC
:100DA000516070475E49002220310A7001F8202905
:100DB000012805D0042802D1052081F820007047C1
:100DC000012081F8200070475A4908607047544953
:100DD0000A6A02430A6270475649443908607047FC
:100DE00010B54F4A516801F00C01534B002927D030
:100DF000042927D0082927D00360516801F0F001A9
:100E000009094E4B5C5C0168E1404160546804F4A0
:100E1000E064240A1C5D21FA04F48460546804F43C
:100E20006054E40A1B5DD940C160526802F440423C
:100E3000920B424B1B1F9A5CB1FBF2F1016110BD9A
:100E40000360DAE70360D8E7516801F47011022308
:100E500003EB9141536803F4803333B153689B0330
:100E600007D5374B59430160C7E7354B59430160FC
:100E7000C3E7314B59430160BFE7294A002903D03A
:100E80005169014351617047516981435161704714
:100E9000234A002903D09169014391617047916908
:100EA0008143916170471E4A002903D0D1690143F3
:100EB000D1617047D1698143D1617047184A0029D7
:100EC00003D0D1680143D1607047D1688143D160BC
:100ED0007047134A002903D011690143116170471B
:100EE00011698143116170471249403908607047A8
:100EF0000F49C86470470A49C87170470848416A79
:100F000041F080714162704701460020044A9268B6
:100F10000A4200D0012070470149887270470000E2
:100F2000001002400000FFF8FFFFF6FE0000002066
:100F3000000042428004424200127A004434000819
:100F400000093D0010B5D549411811D04FF4806417
:100F5000A14218D0B1F5C05F1FD10121CC032046BA
:100F6000FFF7ACFF2046BDE810400021FFF7A6BF09
:100F700001214C022046FFF7A1FF2046BDE81040AA
:100F80000021FFF79BBF01212046FFF797FF204676
:100F9000BDE810400021FFF791BF10BD10B54268B9
:100FA000BF4B1A400C790B6842EA0422134343609A
:100FB0008268BC4B1A40D1E9024323434C7942EA90
:100FC000440213438360C26A22F47002097C491E02
:100FD000C9B242EA0151C16210BD00210160017134
:100FE00041718160C160012101747047002904D002
:100FF000816841F0010181607047816821F0010141
:1010000081607047002904D0816841F4807181605B
:101010007047816821F4807181607047C9B2002AED
:1010200003D042680A434260704742688A43426084
:101030007047816841F008018160704701460020D7
:101040008968090700D501207047816841F00401D3
:1010500081607047014600208968490700D501205A
:101060007047002904D0816841F4A0018160704775
:10107000816821F4A00181607047014600208968E1
:10108000490200D501207047426822F46042491E9F
:1010900042EA413141607047002904D0416841F47F
:1010A000006141607047416821F400614160704710
:1010B00070B5072609290AD9C568A1F10A0404EB0D
:1010C0004404A640B543A3401D43C56007E005693D
:1010D00001EB4104A640B543A3401D4305611F2316
:1010E000072A09D2446B521E02EB820293409C43B2
:1010F00091400C43446370BD0D2A09D2046BD21F8A
:1011000002EB820293409C4391400C43046370BD08
:10111000C46A0D3A02EB820293409C4391400C4317
:10112000C46270BD002904D0816841F480118160DF
:101130007047816821F4801181607047C06C80B273
:101140007047594800687047002904D0416841F44D
:10115000806141607047416821F48061416070475F
:10116000002904D0416841F48051416070474168D2
:1011700021F4805141607047826822F4E0420A43C2
:1011800082607047002904D0816841F40041816089
:101190007047816821F4004181607047002904D0C4
:1011A000816841F4021181607047816821F4021165
:1011B00081607047014600208968890200D50120BE
:1011C000704770B5072609290AD9C568A1F10A0434
:1011D00004EB4404A640B543A3401D43C56007E0AB
:1011E000056901EB4104A640B543A3401D430561D9
:1011F000836BC3F30154121B921C02EB82021F2467
:101200009440A34391400B43836370BD826B22F4EF
:101210004012491E42EA01518163704742507047B3
:101220000844806A80B270474268204B1A400A43E3
:1012300042607047416282627047426822F01F023A
:101240000A434260704718494439002804D00868AE
:1012500040F4000008607047086820F4000008604F
:1012600070470246002012680A4200D001207047F1
:10127000C9430160704710B5024600200B0A54684C
:10128000C9B20C401168194202D0002C00D00120D4
:1012900010BD090AC94301607047000000DCFEBFB1
:1012A000FFFEF0FFFDF7F1FF4C240140FFFD3FFF83
:1012B0000D490A6802F038020A600A6802430A60AF
:1012C000704709490A6822F008020A600A68024366
:1012D0000A60704704490A6822F010020A600A682E
:1012E00002430A6070470000002002400020B44919
:1012F000421E0A6013094B60C1F80021C1F8043195
:101300000021820002F1E022C2F80014401C0F28E4
:10131000F7D370470020AB4A4FF0206111600021E5
:10132000121D1160A74BA84A08331A601A1D1160DC
:10133000121D1160820002F1E022C2F8181D401C4B
:101340000328F7D39F48203001609E49401724317D
:101350000860091D0860091D086070479A49084324
:10136000984908310860704770B50F24C27801268B
:101370000178002A2BD0934A0832126802F4E06206
:10138000C2F5E062120AC2F10403D44045789D40E0
:10139000827822402A4314018A07D30E9C4021F010
:1013A000030202F1E022D2F80054FF2199408D435C
:1013B0000C402543C2F80054007800F01F018E4015
:1013C0004009800000F1E020C0F8006170BD01F02C
:1013D0001F0086404809800000F1E020C0F88061CD
:1013E00070BD0021017041708170C17070477548F7
:1013F0000068C0F3093070470146002001F01F0368
:1014000001229A404909890001F1E021D1F8001236
:101410008A4300D1012070476C490860704700F092
:101420001F02012191404009800000F1E020C0F836
:101430008012704763480068C0F309007047014696
:10144000002001F01F0301229A404909890001F19F
:10145000E021D1F800138A4300D101207047594898
:10146000001F006870475A4A114001435548001D4B
:101470000160704754485349001D083108607047A7
:1014800051485049401C0831086070474D4A0C32A1
:10149000002903D01168014311607047116881432E
:1014A0001160704700F01F0201209040454A203231
:1014B000002903D01168014311607047116881430E
:1014C0001160704730B5FF243E4B08331B6803F4AE
:1014D000E063C3F5E0631B0AC3F10405DC40A940E7
:1014E00022400A43110100F0C0029309C0F3012019
:1014F000C0008140FF228240980000F1E02000F609
:10150000185003689343036002680A43026030BDC9
:1015100001460020890A01F00F0201219140294A69
:10152000203212680A408A4200D10120704700F040
:101530001F0024490B680122824013430B6070474F
:1015400000F01F001F490A68401E012383401A4310
:101550000A60704701460020C1F3833201219140A7
:10156000184A203212680A408A4200D1012070478E
:10157000C0F38142C0F30151002A05D0012A07D0EF
:1015800010482C30006870470E48283000687047BB
:101590000C4824300068CA00D040022902D000F074
:1015A0000F007047C0B27047C0F38050002803D0CE
:1015B0000448343000687047024830300068704793
:1015C00080E100E004ED00E00000FA0500EF00E03B
:1015D00080FFFF1F72B6704762B67047EFF310804E
:1015E00072B6704780F310887047B0FA80F0704789
:1015F00090FAA0F0704730BF704720BF70470000DE
:1016000010B5A0F100524FF480140023A24206D27C
:10161000500100EB810000F10850036010BDA0F103
:101620008040A042FAD2400100EB810000F18440EA
:10163000036010BD10B5A0F100524FF480140123D7
:10164000A24206D2500100EB810000F10850036075
:1016500010BDA0F18040A042FAD2400100EB810011
:1016600000F18440036010BD70B5DA4C4FF0E02506
:10167000102831D2DFE800F04D4D4D4D08121C4DC1
:101680004D4D4D4D4D4D4D26FFF7A8FF216821F4DE
:1016900080312160BDE87040FFF7A4BFFFF79EFFD7
:1016A000216821F400312160BDE87040FFF79ABF46
:1016B000FFF794FF216821F480212160BDE870408C
:1016C000FFF790BFFFF78AFF296921F00101296127
:1016D000BDE87040FFF786BF6968491C012505EB2E
:1016E0004111C9B2884214D21038C11700EBD16140
:1016F000C1F3471621F01F01441AFFF76FFFA54001
:10170000B10001F1E021C1F88051BDE87040FFF760
:1017100069BF70BD70B5AF4C4FF0E025102831D2D5
:10172000DFE800F04D4D4D4D08121C4D4D4D4D4D17
:101730004D4D4D26FFF752FF216841F48031216065
:10174000BDE87040FFF74EBFFFF748FF216841F446
:1017500000312160BDE87040FFF744BFFFF73EFF56
:10176000216841F480212160BDE87040FFF73ABF55
:10177000FFF734FF296941F001012961BDE870409C
:10178000FFF730BF6968491C012505EB4111C9B25B
:10179000884214D21038C11700EBD161C1F347164B
:1017A00021F01F01441AFFF719FFA540B10001F114
:1017B000E021C1F80051BDE87040FFF713BF70BDD4
:1017C0002DE9F04105460846FFF712FF040E814E51
:1017D000804F0C3E3F1F102D5DD2DFE805F0828266
:1017E000828208131F828282822B39824450FFF743
:1017F000F5FE316821F0FF0121433160BDE8F04181
:10180000FFF7F0BEFFF7EAFE316821F47F4141EABD
:1018100004213160BDE8F041FFF7E4BEFFF7DEFED2
:10182000316821F47F0141EA04413160BDE8F041B3
:10183000FFF7D8BEFFF7D2FE664A083A116821F0DA
:101840007F4141EA04611160BDE8F041FFF7CABE83
:10185000FFF7C4FE396821F0FF0121433960BDE87C
:10186000F041FFF7BFBEFFF7B9FE396821F47F01F1
:1018700041EA04413960BDE8F041FFF7B3BEFFF72C
:10188000ADFE396821F07F4141EA04613960BDE86D
:10189000F041FFF7A7BE4FF0E0204068401C012157
:1018A00001EB4010C0B285421BD2103DE81705EB9A
:1018B0009070C0F3870620F003002D1AFFF78EFE0C
:1018C000B10001F1E021D1F80034EA00FF25954094
:1018D000AB4394401C43C1F80044BDE8F041FFF71E
:1018E00081BEBDE8F08170B53A4D3A4E3A4C0C3DA0
:1018F000361F102846D2DFE800F064080B0E1118DE
:101900002064646464262F64363E6FF0020458E05D
:101910006FF0010455E04FF0FF3452E0FFF75EFE38
:101920002968CCB2FFF75EFE4BE0FFF757FE29684F
:10193000C1F30724FFF756FE43E0FFF74FFE286888
:10194000C0F307443DE0FFF749FE22490839096822
:101950000C0EFFF747FE34E0FFF740FE3168CCB2D3
:10196000FFF740FE2DE0FFF739FE3168C1F3074471
:10197000FFF738FE25E0FFF731FE31680C0EFFF768
:1019800031FE1EE04FF0E0214968491C012202EBC4
:101990004111C9B2884214D21038C11700EB9171BD
:1019A000C1F3870521F00301441AFFF717FEA900D0
:1019B00001F1E021D1F80054FFF714FEE000C5402A
:1019C000ECB2002C03DB2046FFF712FE040E20468B
:1019D00070BD000024ED00E00080FFFF002204E065
:1019E00000F8013B491C521CD2B20B78002BF7D1F6
:1019F00000210170104670472DE9F04105460E4662
:101A00001446FE488078002804D011202070002061
:101A1000BDE8F0812878012809D0022807D00328E2
:101A200005D0042803D0012020700020F0E701F049
:101A300015FC074605F10F013046FFF7CFFF0546BD
:101A4000384601F00FFC002020702846E0E70146F0
:101A5000002002E0491C401CC0B20A78002AF9D1DB
:101A600070472DE9F04105460E461446E34880785C
:101A7000002802D012202070CAE72878012808D058
:101A8000022806D0032804D0042802D001202070A8
:101A9000BEE701F0E3FB07463046FFF7D8FF0F280B
:101AA00005D9384601F0DEFB0B202070B0E7314647
:101AB00005F10F00FFF792FF384601F0D3FB00203D
:101AC0002070A5E770B510F8344F8578467808681F
:101AD00009E00319DA7AB243DA7212B9827AAA43B8
:101AE0008272091D08680028F3D170BDC349C44A39
:101AF0008879105C01F11C031B5CD25C02EBC00016
:101B00004871704770B501F0A9FB0546BB4CA07841
:101B100098B9E07888B9FFF7E9FF617920798142C7
:101B20000BD0B84850F82110E162886B401C8863E4
:101B3000E068401CE06001F0A8FB2846BDE870406A
:101B400001F090BB70B5AD4D0022696ACA610862B0
:101B5000016810E06C6A01F10B0214F8343F6478FC
:101B60009E5C26439E546B6A8A7A93F836301A43F9
:101B70008A72001D01680029ECD1686A90F834105F
:101B80009E4B90F835401C335A5CA2435A54002AAD
:101B900004D190F83610A8798843A87170BD2DE95A
:101BA000FF5F0D46DDF8388016464FF00009C5F896
:101BB0000090009801684FF0010B0CE009780129B2
:101BC00007D0032905D088F800B0002004B0BDE894
:101BD000F09F001D01680029F0D18848817821B16B
:101BE000022088F800000020F0E78448C07820B187
:101BF0000D2088F800000020E8E701F02FFB824666
:101C000000230027002000990C6829E02278012A8F
:101C100018D0032A08D0504601F024FBC5F80090E4
:101C200088F800B03846D1E7228942B1521E22819D
:101C300010C5012346F8049B7F1CBFB20EE040F0A4
:101C400001000BE062683AB104C6C4F8049010C504
:101C500001237F1CBFB201E040F00200091D0C68A7
:101C6000002CD3D1012B3CD0644940F08000496A5C
:101C70002E318A7802438A7081F803900398088095
:101C80000098FFF75FFF504601F0ECFAFFF73AFFCC
:101C900001F0E4FA82465948406A90F8311049B39D
:101CA000022927D00099FFF70DFF544A516A91F895
:101CB000310068B3022843D0C6F800900A2088F8A3
:101CC0000000506A80F8309080F83190C0F81C9085
:101CD000C0F82090C0F82490504601F0C3FA38466E
:101CE00074E7C5F80090504601F0BCFA88F80090FF
:101CF00038466BE7C4692CB12C6045F8049F7F1C03
:101D0000BFB2D2E780F831B00099FFF7DBFECCE735
:101D1000207801280FD002280DD0032808D0504683
:101D200001F0A0FAC5F8009088F800B038464DE7F9
:101D3000C6F8009001E0486A306088F80090C0E77B
:101D4000C6F800900E2088F80000BAE77CB50024A1
:101D50002C4D6946204601F021F958B955F8241058
:101D600041B1012906D0D1E9020200EB82004864AA
:101D700001988864641CE4B21F2CEAD97CBD1F4C16
:101D800002E0C82001F0B4F960780028F9D0606959
:101D90006421B0FBF1F06061002518B92570FF20C7
:101DA00001F031F901F05AFA216AA161256201F0CE
:101DB00059FAD4E90510B0FBF1F0C0F164002070CD
:101DC00001F0A6FAFFF7C2FF642001F091F9E9E7FC
:101DD00000B587B080220C4BCDE9013203200021F1
:101DE000CDE903104FF6FE70084A1E230090AFF2B3
:101DF000710000F00BFF06AA05A111E00800002009
:101E000054340008300A0020300600202C0800203E
:101E100075432F4F532D49492053746174000000BE
:101E20001E2001F03FF807B000BDFD4C01F016FA8E
:101E3000216A491C216201F015FA01F067FAF5E701
:101E400000B587B08022F74BCDE901320320002195
:101E5000CDE903104FF6FF70F34A1F230090AFF255
:101E6000350000F0D3FE06AAF0A11F2001F01AF8F9
:101E7000D9E7002203E000F8012B491E89B20029AE
:101E8000F9D1704710B54FF4A071EC48FFF7F1FF9E
:101E9000EA4800F12002002100233F240370426041
:101EA000C473037420302032491C89B20929F5D348
:101EB00003704360C4730374D949E048086110BDDE
:101EC00010B5D9484FF4FD618430FFF7D2FFD648F2
:101ED0008021001DFFF7CDFFD348843000F15C0264
:101EE000002100243F23426180F84C3080F84D40AF
:101EF0005C305C32491CC9B21529F4D3446180F8C6
:101F00004C3080F84D40C6480463C7498431816233
:101F100010BDC34B00229A7103F11C01002001F88F
:101F2000012B401CC0B20428F9D31A715A71DA622D
:101F30005A627047BA48002141638170C1700172D2
:101F4000C171C1600162816141614170704710B52A
:101F500001F0D6F9FFF7EEFFFFF7DBFFFFF7B0FF69
:101F6000FFF790FF00F047FDFFF76AFFFFF730FF34
:101F7000BDE8104001F0C5B9A949C879012804D1CC
:101F80008878FF2801D2401C8870704770B5A44C37
:101F9000E079012822D101F061F90546A17809B163
:101FA000491EA170A078A0B9E07890B9FFF79EFD16
:101FB0006179207981420CD09B48001D50F8211096
:101FC000E162886B401C8863E068401CE06001F0BF
:101FD00061F92846BDE8704001F044B970BD10B504
:101FE0008F4CE07901280CD101F038F9A17821B9A2
:101FF000E178FF2901D2491CE170BDE8104001F0F1
:1020000031B910BD10B5864CE07901281AD101F024
:1020100025F9E17891B1491EC9B2E17019B1BDE865
:10202000104001F01FB9A17819B1BDE8104001F0CE
:1020300019B901F017F9BDE8104063E5BDE810409B
:1020400001F010B910BD10B5754CE07900280DD124
:10205000FFF74CFD607920717349091D51F820008C
:10206000E0626062BDE8104001F0FFB810BD10B53D
:10207000022001F03DF801F0F1F8694C00212162E5
:1020800001F0F0F8642001F033F801F0E7F8216A7C
:10209000616101216170BDE8104001F0E3B82DE9F4
:1020A000F04101F068F901F0D9F85D4D696B491C08
:1020B000696301F0D7F8E879012845D1687A0126EB
:1020C000002748B1012809D0022809D001206F72E9
:1020D000002839D02C6B33E00120F9E70020F7E726
:1020E00001206E72F4E701F0B9F8E18D29B3491EC1
:1020F0000904090CE18520D194F8301011F0370F54
:1021000006D021F0370184F8301084F8316001E006
:1021100084F8317094F8301009070ED494F8361012
:10212000AA791143A9713E4A94F834101C3294F8EC
:1021300035C0535C43EA0C035354646901F092F8D0
:1021400094F832001F28CED162E44FF48F707047AC
:10215000704710B590F8342090F835408B18DA7A33
:10216000A243DA72002A04D18A7A90F836008243B8
:102170008A7210BDF0B505460F46A87A3049085C52
:102180002C18E47A095D01EBC001CEB22649091D85
:1021900051F826400021243461812760217B91433E
:1021A00021736373243C09070BD41D4994F836202E
:1021B0008B791A438A711C3194F835300A5C1A43C2
:1021C0000A5429462046FFF7C4FF216A19B1204668
:1021D000FFF778FCE5613046F0BD30B5104C616A20
:1021E00041F81C0F00F10B020B7E497E9D5C0D43F4
:1021F0009D54616A827A34318B781A4382720878EE
:1022000004F11C034D781A5C3439AA431A54002A8D
:1022100004D191F83610A0798843A07130BD000038
:1022200008000020300800202C0A002075432F4FA2
:10223000532D49492049646C65000000F0040020DA
:1022400054340008002282720B30002100F8012B68
:10225000491CC9B20429F9D3704705E011F8013BC4
:1022600000F8013B521E92B2002AF7D170472DE9C7
:10227000F05F0646DDE90ABA0D469046994600F041
:10228000EDFF304FBC6A002C58D0183454F8041CB1
:10229000B96200F0E7FF44F8185CA67600252576C1
:1022A0006576E58244F814AC44F80CBC44F8108C14
:1022B0000C9824F8080C24F8069CE577F0082077A1
:1022C00006F00701E176012202FA00F0A0778A40C9
:1022D00062776560A5602561E5602562A56265623B
:1022E000E56225633F2084F8340084F83550183CBB
:1022F000204601F03EF8204601F004F800F0AEFF61
:102300000146114840F82640386B6061A56100B174
:1023100084613C633434BA79A0781043B871094AB7
:1023200020781C326478135C23431354387A401CA1
:102330003872084600F096FF002048E400F092FF53
:10234000422044E408000020300A00202DE9F0413A
:1023500005460F4614461E462878052804D001205D
:1023600030700020BDE8F08104F0800020B124F03E
:1023700080044FF0010801E04FF0000800203070A9
:1023800000F06CFF70224CB3012C36D0022C08D028
:10239000032C15D000F066FF00246F20307020461B
:1023A000E0E72C8921463C40BC4205D1B8F1010F41
:1023B00003D1A143298100E0327000F053FFEEE722
:1023C0002C8921463C402CB1B8F1010F03D1A14327
:1023D000298100E0327000F045FFE0E7298927EA13
:1023E0000104BC4205D1B8F1010F03D12143298179
:1023F00000E0327000F036FFD1E7298927EA0104B6
:102400002CB1B8F1010F03D12143298100E03270D2
:1024100000F028FFC3E770B506460D46FE48007879
:10242000002803D010202870002070BD00F016FF97
:10243000FA490C686CB162680A6005212170268136
:10244000002666603F21A172E67200F00BFF2E703D
:1024500003E000F007FF72202870204670BD42683C
:1024600001680023002A05D0116001B14A6080682C
:1024700083627047C26851600029F8D04B60F6E76C
:1024800010B50246906800232C304380018001790A
:1024900021F02001017143712C38002905D000245E
:1024A0001046FFF7DCFF204610BDDD49343083784D
:1024B0000C7823430B700178DA4B40785C5C044362
:1024C0005C540124ECE72DE9F05F0446894616468A
:1024D000D1480078002804D00F2030702046BDE895
:1024E000F09F2078052803D0012030702046F6E7C1
:1024F00000F0B4FE804665680DB1012700E00027BA
:102500005FEA0901DFF814A34FF03F0B4FF0000919
:1025100008D0012927D0404600F0A4FE07203070E3
:102520002046DCE737B1404600F09CFE4920307081
:102530002046D4E784F80AB084F80B9084F8009021
:10254000DAF800006060A4F80890CAF8004040463D
:1025500000F088FE86F800900020C0E700212846A1
:10256000FFF78EFF2D68002DF8D184F80AB084F8AB
:102570000B9084F80090DAF800006060A4F80890EE
:10258000CAF80040404600F06DFE012F01D1FFF770
:10259000B9FA86F800900020A1E72DE9F04106463F
:1025A0000F4614469C480078002803D01120207064
:1025B0000020D7E600F052FE05463078052806D008
:1025C000284600F04FFE012020700020CAE606F1E8
:1025D0000A013846FFF702FA0646284600F042FE96
:1025E000002020703046BDE62DE9F04105460F463B
:1025F000144689480078002802D012202070B1E6E5
:1026000000F02CFE06462878052805D0304600F05C
:1026100029FE01202070A5E63846FFF718FA0F289A
:1026200005D9304600F01EFE732020709AE6394628
:1026300005F10A00FFF7D2F9304600F013FE002042
:1026400020708FE6F0B5059F774D2C682834267AE8
:1026500046F02006267200266672E78044F82819A4
:102660000A828B748C6042680A604E60C86042685F
:10267000002A00D051604160286890F83410694BFE
:1026800090F835405A5CA2435A54002A05D190F87C
:1026900036206348017891430170F0BD2DE9F04F79
:1026A00087B00446109D0F4691469A465A480078D6
:1026B000002805D002202870002007B0BDE8F08F68
:1026C0005A48007818B10D2028700020F5E72078CE
:1026D000052803D0012028700020EEE709F08000D3
:1026E00018B129F08009012600E0002600F0B6FDAF
:1026F00001904FF0000BB9F1000F56D0B9F1010F66
:1027000075D0B9F1020F09D0B9F1030F29D00198A2
:1027100000F0A8FD00206F212970CEE7B4F80880F2
:10272000404608EA0708B8450FD1012E02D120EA39
:10273000080020813C480068A0F82C80019800F037
:1027400091FD85F800B04046B7E74B463A4602A9EE
:102750002046CDF800A0FFF775FF019800F082FD3C
:1027600073E0B4F80880404608EA0708B8F1000FA3
:102770000FD0012E02D120EA080020812A480068EB
:10278000A0F82C80019800F06DFD85F800B040465F
:1027900093E74B463A4602A92046CDF800A0FFF742
:1027A00051FF019800F05EFD4FE0208927EA000804
:1027B000B8450FD1012E02D140EA080020811A4805
:1027C0000068A0F82C80019800F04CFD85F800B05E
:1027D000404672E74B463A4602A92046CDF800A093
:1027E000FFF730FF019800F03DFD2EE0FFE7208964
:1027F00027EA0008B8F1000F1CD0012E02D140EAF0
:102800000800208108480068A0F82C80019800F09A
:1028100029FD85F800B00BE00A00002040000020F0
:102820000E000020240000202C0000200B000020BF
:10283000404642E74B463A4602A92046CDF800A062
:10284000FFF700FF019800F00DFDFFF75BF900F0C6
:1028500005FD8046DFF8D8A1DAF8000090F8317065
:10286000A7B180F831B002A8FFF7F9FDDAF800004F
:1028700080F830B0404600F0F5FC0020022F02D076
:102880000A21297019E70E21297016E7878D012E7C
:1028900019D1B9F1000F13D0B9F1010F10D0B9F16E
:1028A000020F09D0B9F1030F06D0404600F0DAFC60
:1028B0006F202870002000E72089B843208102E0C3
:1028C000208938432081404600F0CCFC85F800B0D8
:1028D0003846F2E610B500F0C1FC554909688C8D08
:1028E00000F0C0FC204610BD2DE9F04105460E4623
:1028F00014461F462878052803D001203870002090
:1029000030E500F0ABFC804644B1012C0AD04046D3
:1029100000F0A8FC71203870002023E52889B0431E
:10292000288102E028893043288100266C683DE038
:10293000A07C18B301282ED0022808D0032812D07A
:10294000404600F08FFC6F20387000200AE529898E
:10295000208A0140884228D12046FFF791FD0128B6
:1029600023D1012621E02989208A0140E9B12046AE
:10297000FFF786FD012818D1012616E0218A2A8951
:1029800008469143884210D12046FFF779FD01287F
:102990000BD1012609E0218A2889814329B12046EB
:1029A000FFF76EFD012800D101262468002CBFD15D
:1029B000404600F057FC012E01D1FFF7A3F800F0CC
:1029C0004DFC2C8900F04EFC002038702046C9E4F4
:1029D00070B505460C462878052803D001202070E4
:1029E000002070BD00F03AFC2D8900F03BFC002077
:1029F0002070284670BD10B58C210E48FFF739FABB
:102A00000C4800F11C02002100233F2403704260A7
:102A10008472C3721C301C32491C89B20429F5D35C
:102A2000037043608472C37203490248086010BD9A
:102A30002C00002098120020400000202DE9F05FBB
:102A40000546884600F00AFCF84A52F8281021B1E1
:102A500000F008FC2820BDE8F09FFF2D03D1F449C9
:102A6000096891F8325052F825301BB3012B25D05C
:102A70004FEAD80408F0070B012606FA04F1CFB29A
:102A800006FA0BF1C9B2002642F8256042F8283058
:102A900093F8346093F836A093F835C0E54DAA5DFD
:102AA00012EA0C0F1CD022EA0C02AA55DFF8889318
:102AB00042B10DE000F0D6FB2920CCE700F0D2FBBC
:102AC0004320C8E799F8002022EA0A0289F800208A
:102AD00099F800203A4389F800202A5D0A432A55D4
:102AE000DA699AB102EB060999F80B5025EA0C0550
:102AF00089F80B501DB9957A25EA0A059572957AE1
:102B00003D4395722244D57A0D43D5721D6A1DB39B
:102B10002A681FE002EB060E9EF80B9029EA0C09CA
:102B20008EF80B90B9F1000F05D192F80A9029EABE
:102B30000A0982F80A9092F80A9049EA070982F88D
:102B40000A90224492F80B9049EA010982F80B900E
:102B50002D1D2A68002ADDD103F8328F9C7083F87E
:102B600001B01F71D97000F07DFBB44800780128D6
:102B700001D1FEF7C7FF00206DE72DE9FE430546B2
:102B80000E4690461C4600F069FBAD49097821B11C
:102B900000F068FB3C20BDE8FE83A44F57F82410EA
:102BA00019B100F05FFB2820F5E7012147F8241058
:102BB00000F058FB002342463146284600F0AAFBAD
:102BC00001460025009501952B462A462046029590
:102BD000FFF74DFB06463EB100F040FB47F824509E
:102BE00000F040FB3046D6E7944800780128F9D140
:102BF000FEF788FFF6E7D30707D0920705D5002236
:102C000001E0491E04C00029FBD170472DE9FF4FA8
:102C100083B08246DDE91197DDE913868B461C46B9
:102C200000F01CFB8649097829B100F01BFB3C2011
:102C300007B0BDE8F08F7D4D55F8241019B100F0B4
:102C400011FB2820F4E7012145F8241000F00AFBCD
:102C5000324639464846FFF7CEFF3346594650467E
:102C6000059A00F057FB0146CDE9007802964A46E6
:102C70002046109BFFF7FBFA064646B100F0EEFA3D
:102C8000002145F8241000F0EDFA3046D0E76B48FB
:102C900000780128F9D1FEF735FFF6E72DE9F04776
:102CA000054667480078002802D04020BDE8F0873C
:102CB0001F2D05D000F0D2FA0646FF2D02D005E008
:102CC0003E20F3E75A48006890F83250574F57F8C3
:102CD00025405CB1012C0ED094F83410554A94F87C
:102CE0003530505C9843505450B10FE0304600F0FE
:102CF000B9FA4320DAE7304600F0B4FA3D20D5E7D0
:102D00004D4894F83620017891430170E16911B182
:102D10002046FFF71EFA216A11B12046FEF7D2FEC7
:102D2000A06A08B1FFF79BFB4FF00008A4F82E80C3
:102D300084F8308084F83180DFF8089199F8000039
:102D4000FF2802D2401C89F80000304600F08AFAC1
:102D5000FFF7FEF900F082FA064699F8000010B17C
:102D6000401E89F80000204600F0CEFA3649087867
:102D7000401E087047F82580A069A8B161694161CB
:102D8000D4E90510886131480168616104603F2021
:102D900084F84C0084F84D80304600F063FA2748F0
:102DA0000078012807D008E06069C0F81880284939
:102DB00060690860E7E7FEF7A5FE002076E710B53A
:102DC00004461F2C10D0FF2C10D000F047FA1749F2
:102DD00051F82410A1B1012916D03F2281F83720E3
:102DE00000F040FA002010BD3E2010BD00F036FA81
:102DF0000F49096891F8374000F034FA204610BDB9
:102E000000F030FA432010BD00F02CFA3D2010BD38
:102E10002DE9F04106460F4614460948007800287F
:102E200018D0112020700020BDE8F081300A002069
:102E30002C000020240000200E0000200F000020A5
:102E40000A0000200B0000201000002030000020AD
:102E50003800002000F002FA0546FF2E03D19E48FC
:102E6000006890F832609D4850F82610432669B1FA
:102E7000012911D04C313846FEF7B0FD06462846F0
:102E800000F0F0F9002020703046CDE7284600F031
:102E9000E9F926700020C7E7284600F0E3F926701C
:102EA0000020C1E72DE9F04105460F4614468C4845
:102EB0000078002802D012202070B5E700F0CEF98B
:102EC0000646FF2D03D18448006890F832508348AD
:102ED00050F825504FF0430865B1012D10D0384609
:102EE000FEF7B5FD0F2811D9304600F0BBF941209F
:102EF000207099E7304600F0B5F984F8008093E738
:102F0000304600F0AFF984F800808DE7394605F1CE
:102F10004C00FEF763FD304600F0A4F9002020705D
:102F200082E710B5044600F099F96C4951F8241075
:102F300071B1012910D091F8302013072AD522F061
:102F4000080281F830205AB100F08CF9002010BD41
:102F500000F088F9462010BD00F084F9432010BD30
:102F6000CA8D12B100F07EF9F0E75E4A34318B78F9
:102F70001478234313700A785B4B49789C5C0C43AC
:102F80009C5400F06FF9594800780128DED1FEF713
:102F9000B9FDDBE700F066F9442010BD2DE9F041F2
:102FA00004460E4600203060706000F057F9FF2C98
:102FB00003D14949096891F83240484951F8242021
:102FC00052B1012A0CD0117CC9070DD00024D7685A
:102FD000956800F047F90CE000F044F9432023E73E
:102FE00000F040F943201FE700F03CF945201BE7C3
:102FF000641C01CD0028FBD0A0003060381B80008D
:103000007060002010E770B5044600F027F9014613
:103010003148FF2C06D0006890F83200A04206D15B
:10302000012505E0006890F83240012500E0002508
:103030002A4850F8240058B101280ED090F83420C6
:10304000294C90F83560A35CB343A35453B10FE00F
:10305000084600F007F9482070BD084600F002F964
:10306000432070BD1F4A90F836401378A343137075
:1030700010F8302F42F008020270084600F0F2F813
:10308000012D01D1FEF73EFD002070BD70B5054653
:103090000E4600F0E3F80446FF2D03D10E48006809
:1030A00090F832500D4850F8251051B101290DD03B
:1030B0005C223046FFF7D1F8204600F0D3F800201C
:1030C00070BD204600F0CEF8292070BD204600F0EB
:1030D000C9F8432070BD00002C000020300A0020F9
:1030E0000A0000200E000020240000200F00002015
:1030F00070B504465348007800281BD1002C19D025
:1031000000F0ACF85049096891F834204F4D91F81F
:103110003560AB5CB343AB542BB94D4A91F8365094
:103120001378AB431370CC8500F09CF8BDE8704079
:10313000FEF7E8BC70BD70B5424C2478002C01D07D
:10314000552070BD4FF47A746343B3FBF4F34FF42E
:1031500061646043C1EB011100EB8100104400EB9E
:103160004001C1EBC01003EBC000040C80B2FFF7BC
:10317000BFFF4FF4004507E02846FFF7B9FF284698
:10318000FFF7B6FF641EA4B2002CF5D1002070BD7D
:1031900010B504461F2C01D32A2010BD00F05EF8A4
:1031A0002C4951F8241091B1012914D0CA8DB2B123
:1031B0000023CB8591F8302012F0370F13D022F086
:1031C000370281F83020012281F831200DE000F033
:1031D00049F8432010BD00F045F8432010BD00F031
:1031E00041F8502010BD81F8313091F8302012079D
:1031F00010D4174B34318A781C7822431A700A781D
:10320000124B49789C5C0C439C5400F02BF8FEF761
:1032100079FC01E000F026F8002010BD10B500F0A8
:103220001DF80D490C6800F01DF8204610BD10B5C2
:10323000044600F013F808490C60BDE8104000F0A7
:1032400011B800000A0000202C00002024000020FB
:103250000E000020300A00203C000020EFF3108018
:1032600072B6704780F3108870471D484FF0FF0119
:103270000170002080F309881A48012101701A4862
:103280004FF08051016062B6FEE717484FF0805161
:103290000160704714484FF080510160704772B66A
:1032A000EFF3098028B1203880E8F00F0F49096852
:1032B000086000B50E4880475DF804EB0D480E49E4
:1032C0000A78027009480D490A680260106890E89F
:1032D000F00F203080F309884EF0040E62B670477C
:1032E00022ED00E00F00002004ED00E02C000020A3
:1032F0006F3300080C0000200D0000203400002077
:1033000070477047FCF747BFFCF746BFFCF745BF67
:10331000FCF744BF4FF08073136042F8040C083A86
:103320006FF001001060A2F130004FF01233C36261
:103330004FF0033282624FF0023242625210026258
:10334000C1614FF011318161110141615910016179
:10335000D100C1604FF0073181604FF0063141600C
:103360004FF0053140F80419910001607047FCF7F7
:1033700016BFFCF715BF704710B5FFF76FFF104A77
:103380001178491C1170FFF76DFFFEF788FEBDE84C
:103390001040FEF7FBBD10B5FDF778F84FF47A71D9
:1033A000B0FBF1F14FF0E020491E4161016941F0AD
:1033B00005010161016941F00201016110BD0000D8
:1033C0000A000020064C074D06E0E06840F00103CB
:1033D00094E8070098471034AC42F6D3FCF790FE0F
:1033E000543500087435000800480047F90000080B
:1033F000014A024900F013B8C1010008440000204E
:1034000002E008C8121F08C1002AFAD170477047AD
:10341000002001E001C1121F002AFBD170472DE9F5
:10342000F04116460F460446002503E03946B047F2
:103430006D1C641C20780028F8D12846BDE8F08176
:103440000204060800000000010203040102030454
:103450000607080900000100020001000300010046
:10346000020001000400010002000100030001004D
:10347000020001000500010002000100030001003C
:10348000020001000400010002000100030001002D
:10349000020001000600010002000100030001001B
:1034A000020001000400010002000100030001000D
:1034B00002000100050001000200010003000100FC
:1034C00002000100040001000200010003000100ED
:1034D00002000100070001000200010003000100DA
:1034E00002000100040001000200010003000100CD
:1034F00002000100050001000200010003000100BC
:1035000002000100040001000200010003000100AC
:10351000020001000600010002000100030001009A
:10352000020001000400010002000100030001008C
:10353000020001000500010002000100030001007B
:10354000020001000400010002000100030001006C
:10355000020001007435000800000020480000004F
:1035600000340008BC35000848000020DC120000D0
:1035700010340008000000000000000000000000FF
:10358000000000000000000000000000000000003B
:10359000000000000000000000000000000000002B
:1035A000000000000000000000000000000000001B
:0C35B0000000000000000000000000000F
:04000005080033E9D3
:00000001FF
